:1070000055C000006EC000006CC000006AC00000E7
:1070100068C0000066C0000064C0000062C00000DC
:1070200060C000005EC00000FAC400005AC000004A
:1070300058C0000056C0000054C0000052C00000FC
:1070400050C00000DDC000004CC000004AC000007D
:1070500048C0000046C0000044C0000042C000001C
:1070600040C000003EC000003CC000003AC000002C
:1070700038C0000036C0000034C0000032C000003C
:1070800030C000002EC000002CC000002AC000004C
:1070900028C0000026C0000024C0000022C000005C
:1070A00020C000001EC000001CC0000011241FBE34
:1070B000CFEFDAE0DEBFCDBF11E0A0E0B1E0EAEF54
:1070C000FEE702C005900D92A83BB107D9F721E079
:1070D000A8EBB1E001C01D92AF3CB207E1F799D334
:1070E0000AC78ECF84E08093E9008091E80085FF95
:1070F00003C08091F10008958091E8008B77809320
:10710000E8008091E80082FDF0CF8EB38111F9CFC5
:1071100080E0089593E09093E9009091E80095FF56
:107120000AC08093F1005D9884E690E09093BD01E1
:107130008093BC0108959091E8009E779093E800B9
:107140009091E80090FDEDCF9EB39111F9CF089595
:10715000F89410926F0010928100109285001092A6
:10716000840081E085BF15BE47985D9A289A0C94EB
:10717000000008952091C3013091C4012F5F3F4F5B
:107180003093C4012093C301832F37FF02C08EEFD9
:10719000831B880F821710F447980895479A089523
:1071A00084B7877F84BF0FB6F894A895809160005C
:1071B000886180936000109260000FBE90E880E0CC
:1071C0000FB6F89490936100809361000FBE81E048
:1071D00085BF82E085BF3F9A209A559AE1E6F0E0AC
:1071E0009083108247985D9A289A109289009AEFAE
:1071F0009093880080936F0083E080938100F7C3B1
:107200001F920F920FB60F9211242F938F939F937B
:10721000EF93FF9310928500109284008091BC013F
:107220009091BD01009741F001979093BD0180932B
:10723000BC01892B09F45D9A8091BA019091BB0140
:10724000009741F001979093BB018093BA01892B7D
:1072500009F4289AF0E0E0E085919491019649F0D4
:107260008091B8019091B90101969093B9018093F2
:10727000B801FF91EF919F918F912F910F900FBEC9
:107280000F901F90189542E061EC82E045D342E1F7
:1072900061E883E041D342E160E884E03DC380914E
:1072A000C701982F9F779132B9F49091C80190321D
:1072B000A1F0913289F4813A79F48091E800877FD6
:1072C0008093E80067E070E083E091E059D480911A
:1072D000E8008B778093E80008958132E9F7809188
:1072E000E800877F8093E80067E070E083E091E04A
:1072F000A0D48091E8008E77EDCF4F925F926F928D
:107300007F928F929F92AF92BF92CF92DF92EF9235
:10731000FF920F931F93CF93DF93CDB7DEB76097A4
:107320000FB6F894DEBF0FBECDBF84E08093E900B6
:107330008091E80082FF54C2289884E690E0909300
:10734000BB018093BA01CEDE182F853451F58CE451
:107350009DE19093B9018093B80107B600FCFDCF81
:10736000F999FECF81E180935700E8958DE0D2DE58
:1073700083E08093E9009091E8008091E8008E77A7
:107380008093E80095FF1FC28091E80080FF25C22E
:1073900084E08093E9008091E8008B778093E80097
:1073A0001FC2843511F49EDEE1CF8C34F9F28035B2
:1073B000E9F2843721F484E4ADDE80E0D8CF89E5BA
:1073C0001136A9F21B34F1F480E1EAE0F1E0DE01CC
:1073D000119601900D928A95E1F7CE0101967C01FC
:1073E0008E010F5E1F4F7EDEF70191917F01981392
:1073F0000EC280E08FDE0E151F05A9F781E0809395
:10740000BE01B6CF1134D1F46DDE182F6BDE212F03
:1074100030E0322F2227330F90E0880F991F822B04
:10742000932B092E000CAA0BBB0B8093BF019093EA
:10743000C001A093C101B093C20198CF83E510377A
:1074400009F495CF133571F40EEA11E065EBE62EE1
:1074500061E0F62EF80181918F015CDEE016F10605
:10746000C9F786CF163521F481E354DE80E37FCF60
:10747000133731F487E84EDE85E94CDE8EE177CFB5
:107480001536B9F4F0E0E0E083E095E08093570032
:10749000E89507B600FCFDCF90935700E89507B636
:1074A00000FCFDCFE058FF4FE11520E7F20771F730
:1074B0005DCF89E0E1E0F0E0123779F089E0F0E0BB
:1074C000E0E0163451F089E0E3E0F0E01E3429F00A
:1074D000113539F489E0E2E0F0E0809357008491BF
:1074E00046CF123631F489E515DE80E013DE80E800
:1074F0003ECF123419F0173609F0D5C01092B901F9
:107500001092B8018091BE01882309F431CFEADDE1
:10751000E82EE8DDF82EE6DD082F8BEB800F8230B9
:1075200010F08FE324CFEF24FE24EF2410926F009D
:10753000173609F046C081E180935700E89510E0C6
:10754000DD24D394E1E0EE1AF10820F482E0809388
:107550006F000ECF8090BF019090C001A090C1013C
:10756000B090C2010634B9F4E12FF0E0E829F9291E
:107570008491D0DD112369F082E0880E911CA11C5A
:10758000B11C8092BF019092C001A092C101B09243
:10759000C2011D25D7CFD501C401B695A7959795F2
:1075A000879593D4B7DD92E0890E911CA11CB11C84
:1075B0008092BF019092C001A092C101B092C2011D
:1075C000C1CF4090BF015090C0016090C101709048
:1075D000C201063441F483E0F20180935700E8953C
:1075E00007B600FCFDCFD12C10E0CC24C39424C0FE
:1075F000063409F035C0112381F18090BF019090CD
:10760000C001A090C101B090C2016CDD982F8D2DFA
:10761000F4010C01C0925700E8951124F2E08F0E9E
:10762000911CA11CB11C8092BF019092C001A0923C
:10763000C101B092C2011C2521E0E21AF108C0F696
:10764000063441F485E0F20180935700E89507B6CF
:1076500000FCFDCF8DE05EDD79CF44DDD82EEBCF91
:1076600041DD682F8091BF019091C001A091C101BF
:10767000B091C201B695A795979587952ED4809124
:10768000BF019091C001A091C101B091C2010296C9
:10769000A11DB11D8093BF019093C001A093C101B2
:1076A000B093C201C9CF133471F40091BF0110919E
:1076B000C00118DD90E021E0F8010C012093570093
:1076C000E895112453CE133601F58090BF019090B8
:1076D000C001A090C101B090C20104DDF401E160DD
:1076E00090E021E00C0120935700E8951124F2E08E
:1076F0008F0E911CA11CB11C8092BF019092C00101
:10770000A092C101B092C20131CE1D3661F4E09168
:10771000BF01F091C00185E080935700E89507B65E
:1077200000FCFDCF23CE123551F4E091BF01F09162
:10773000C00105911491812FEDDC802F18CE1434F7
:10774000D9F4D0DC682F8091BF019091C001A09145
:10775000C101B091C201B695A79597958795BDD304
:107760008091BF019091C001A091C101B091C2016F
:107770000296A11DB11D59CE1436F1F48090BF01BF
:107780009090C001A090C101B090C201D501C40188
:10779000B695A7959795879598D3BCDC22E0820E85
:1077A000911CA11CB11C8092BF019092C001A092BB
:1077B000C101B092C201DCCD1B3109F4D9CDB1CEEB
:1077C0008EB3882369F08091E80080FFF9CF809123
:1077D000E8008E778093E800D7CD8EB38111D4CDA9
:1077E00060960FB6F894DEBF0FBECDBFDF91CF918C
:1077F0001F910F91FF90EF90DF90CF90BF90AF90CF
:107800009F908F907F906F905F904F90089581E050
:10781000AECD20910008309101081092010810921D
:10782000000884B714BE0FB6F894A8959091600034
:10783000986190936000109260000FBE81FD0AC0B5
:1078400080FF1BC0F0E0E0E0459154914F3F5F4F57
:10785000A1F07EDCA5DC78941092B9011092B801F9
:1078600080910201811119C08091E00081608093B4
:10787000E0006EDC90E080E0089583FFEBCF809124
:107880000001909101018217930721F3F0E0E0E0FD
:10789000859194910196F1F2DCCF2FDDFFD280919A
:1078A000B8019091B90181349F4110F0109202010A
:1078B00061DCD6CF292F30E02230310571F0233042
:1078C000310581F02130310511F582E190E02CE99C
:1078D00031E0FA013183208308958EE390E02EE5B4
:1078E00031E0F7CF882349F0813061F0823079F4BC
:1078F00088E190E02CE131E0ECCF84E090E02AE5F3
:1079000031E0E7CF82E290E026E331E0E2CF90E0A1
:1079100080E030E020E0DDCF8093E900EBEEF0E0A6
:10792000808181608083EDEEF0E010826093EC0056
:1079300040838091EE00881F8827881F08958091DA
:10794000C70187FF11C08091E80082FF06C08091C7
:10795000E8008B778093E80003C08EB38111F3CFEA
:1079600008958EB38823E1F38091E80080FFF9CF7A
:107970008091E8008E77EECF0F931F93CF93DF9324
:1079800041D048D0C8EDD0E088818F778883888146
:107990008068888388818F7D888319BC1EBA109285
:1079A000C50100EE10E0F80180818B7F8083888123
:1079B0008160888342E060E080E0AEDFE1EEF0E0ED
:1079C00080818E7F8083E2EEF0E080818160808321
:1079D000808188608083F80180818E7F80838881A8
:1079E00080618883DF91CF911F910F910895E7ED1A
:1079F000F0E08081816080838AE482BF81E08093AF
:107A0000C601BACFE8EDF0E080818E7F80831092CE
:107A1000E20008951092DA001092E10008951F929A
:107A20000F920FB60F9211242F933F934F935F93B2
:107A30006F937F938F939F93AF93BF93EF93FF9336
:107A40008091DA0080FF17C08091D80080FF13C0BA
:107A50008091DA008E7F8093DA008091D90080FFD8
:107A60004EC080E189BD82E189BD09B400FEFDCF31
:107A700081E08EBB12D28091E10080FF17C080911F
:107A8000E20080FF13C08091E2008E7F8093E200CD
:107A90008091E20080618093E2008091D800806252
:107AA0008093D80019BC85E08EBBF7D18091E100AE
:107AB00084FF30C08091E20084FF2CC080E189BD4A
:107AC00082E189BD09B400FEFDCF8091D8008F7D91
:107AD0008093D8008091E1008F7E8093E1008091B7
:107AE000E2008F7E8093E2008091E20081608093CB
:107AF000E2008091C501882331F084E009C019BCFF
:107B00001EBACBD1B8CF8091E30087FDF6CF81E0DC
:107B10008EBBC3D18091E10083FF21C08091E20040
:107B200083FF1DC08091E100877F8093E10082E0A8
:107B30008EBB1092C5018091E1008E7F8093E100A1
:107B40008091E2008E7F8093E2008091E20080616C
:107B50008093E20042E060E080E0DEDE9ED1FF91B3
:107B6000EF91BF91AF919F918F917F916F915F91B5
:107B70004F913F912F910F900FBE0F901F9018952E
:107B8000FC018091CD019091CE0186179707A0F05E
:107B90006115710529F49091E8009E779093E800B3
:107BA00090E06115710551F4911108C08091E800D1
:107BB00082FF34C080E00895BC01F2CF8EB38823E9
:107BC000B1F1853081F18091E80083FD2EC0809174
:107BD000E80082FDEBCF8091E80080FFE2CF2091AA
:107BE000F3008091F200322F282F6115710519F0F2
:107BF0002830310558F091E02830310509F090E047
:107C00002091E8002E772093E800CBCF81918093DC
:107C1000F100615071092F5F3F4FE7CF8EB388238A
:107C200031F0853019F683E0089581E0089582E00F
:107C30000895FC016115710529F49091E8009B7786
:107C40009093E8006115710531F48091E80080FFA0
:107C50001EC080E008958EB3882311F18530E1F0D5
:107C60008091E80083FD1AC08091E80082FFEACF8E
:107C70002091F3008091F200322F282F232BE9F27C
:107C80008091F10081936150710991F7D6CF8EB345
:107C9000882331F08530C9F683E0089581E00895A6
:107CA00082E008950F931F93CF93DF9300D0CDB759
:107CB000DEB7E7ECF1E08091F100819381E0EF3CE9
:107CC000F807C9F7ECDA8091E80083FF8AC0809159
:107CD000C7019091C8019A3008F083C0E92FF0E005
:107CE000ED58F14CECC07D3E993EF13E993EF13E9F
:107CF000D23E063FF13E243F303F823809F071C04A
:107D00008091CB0187708093E9008091EB0085FB27
:107D1000882780F91092E9009091E800977F90936E
:107D2000E8008093F1001092F1008091E8008E77D6
:107D300022C0282F2D7F09F054C0823009F051C095
:107D40008091C901811112C08091CB01877009F423
:107D500048C08093E9002091EB0020FF07C09330DA
:107D600071F48091EB0080628093EB001092E90047
:107D70008091E800877F8093E800E1DD32C0909138
:107D8000EB0090619093EB0021E030E001C0220F06
:107D90008A95EAF72093EA001092EA008091EB00BE
:107DA0008860E2CF81111DC01091C9011F770FB704
:107DB000F8948091E800877F8093E800C0DD80918F
:107DC000E80080FFFCCF8091E3008078812B8093D6
:107DD000E30080688093E30082E0111183E08EBBB2
:107DE0000FBF8091E80083FF0AC08091EB008062A2
:107DF0008093EB008091E800877F8093E8000F90EC
:107E00000F90DF91CF911F910F910895805882308C
:107E100040F7AE014F5F5F4F6091CB018091C90188
:107E20009091CA0147DDBC01892BD9F29091E800FD
:107E3000977F9093E80089819A81A2DE8091E80083
:107E40008B778093E800CDCF803859F68091E80099
:107E5000877F8093E8008091C5018093F10065CF12
:107E60008111BFCF9091C901923008F0BACF8091B3
:107E7000E800877F8093E8009093C50160DD8091E2
:107E8000C501882311F084E005C08091E30087FDDF
:107E9000FACF81E08EBBF7D9A4CF0895CF938EB3EC
:107EA000882359F0C091E900C7701092E9008091D1
:107EB000E80083FDF7DEC093E900CF910895EE0F4F
:107EC000FF1F0590F491E02D0994F999FECF92BD22
:107ED00081BDF89A992780B50895262FF999FECF8C
:107EE0001FBA92BD81BD20BD0FB6F894FA9AF99AD7
:0A7EF0000FBE01960895F894FFCF2D
:107EFA0077770100000000000008314441318A3FD1
:107F0A003BD96814A1D42ABF4BAB0008180341001F
:107F1A0072006400750069006E006F0020004C005A
:107F2A004C00430000002203410072006400750007
:107F3A0069006E006F0020004C0065006F006E0043
:107F4A006100720064006F00000004030904090262
:107F5A003E00020100803209040000010202010011
:107F6A000524001001042402040524060001070563
:107F7A0082030800FF09040100020A000000070545
:107F8A00040210000107058302100001120110010A
:107F9A0002000008412336000100020100014341AA
:087FAA00544552494E4100000C
:040000030000700089
:00000001FF
