:1070000039C000006EC000006CC000006AC0000003
:1070100068C0000066C0000064C0000062C00000DC
:1070200060C000005EC000005CC00000E6C400005C
:1070300058C0000056C0000054C0000052C00000FC
:1070400050C000004EC00000F2C200004AC0000064
:1070500048C0000046C0000044C0000042C000001C
:1070600040C000003EC000003CC000003AC000002C
:1070700038C0000011241FBECFEFD4E0DEBFCDBF6B
:1070800004B603FE19C08091A0019091A101823441
:107090009C4D91F484B7877F84BF88E10FB6F89444
:1070A00080936000109260000FBE1092A1011092B8
:1070B000A001E0E0F0E0099511E0A0E0B1E0ECE82B
:1070C000FDE702C005900D92A239B107D9F721E082
:1070D000A2E9B1E001C01D92A03AB207E1F731D0B8
:1070E00053C68ECF84E08093E9008091E80085FD4F
:1070F0000EC08091E8008B778093E8008091E800D3
:1071000082FDF3CF8EB38111F9CF80E00895809195
:10711000F100089593E09093E9009091E80095FFC5
:1071200003C08093F10008959091E8009E779093BA
:10713000E8009091E80090FDF4CF9EB39111F9CF53
:107140000895CF93DF9300D01F92CDB7DEB784B7F9
:10715000877F84BF88E10FB6F89480936000109217
:1071600060000FBE90E080E80FB6F8948093610055
:10717000909361000FBE11E015BF82E085BF2ED451
:1071800010936F0083E0809381007894A3E07A2EBF
:10719000B5E06B2E212C312C80910001882309F45D
:1071A0002FC284E08093E9008091E80082FF26C22C
:1071B00099DF982F853419F41092000107C088E8F0
:1071C000890F823010F0943521F48CDF8DE0A2DF3E
:1071D000EDC19035D9F39C34C9F3943721F484E49C
:1071E00099DF80E0F4CF913611F489E5F0CF913446
:1071F00091F478DF082F76DF90E0880F991F202F19
:1072000030E0322F2227330F822B932BAA2797FDB2
:10721000A095BA2F9FC1903711F483E5D8CF93354D
:1072200071F47AE8E72E71E0F72EF70181917F0182
:1072300071DFF1E9EF16F1E0FF06B9F7B7C1963556
:1072400021F481E367DF80E3C2CF933731F48AE82A
:1072500061DF85E95FDF8EE1BACF9536A9F4E0E022
:10726000F0E070925700E89507B600FCFDCF609201
:107270005700E89507B600FCFDCFE058FF4FE11539
:1072800080E7F80771F7A2CF9C3651F42BDF809589
:1072900099E0E1E0F0E0082E90935700E89596CF52
:1072A000923721F489E0E1E0F0E010C0963419F45F
:1072B00089E0F1010BC09E3421F489E0E3E0F0E0C5
:1072C00005C0913539F489E0E2E0F0E080935700A1
:1072D00084917DCF923631F489E51CDF80E01ADF9E
:1072E00080E875CF923419F0973609F0CEC09983B3
:1072F000F9DEA82EB12CBA2CAA24F4DEA82AF2DEDC
:10730000082F8BEB800F9981823010F08FE35FCFD5
:10731000973609F044C081E180935700E895450114
:10732000B12C8114910409F441C1C0909201D09014
:107330009301E0909401F09095010634B9F4EB2D9F
:10734000F0E0EC29FD298491E5DEBB2069F0F2E054
:10735000CF0ED11CE11CF11CC0929201D09293017E
:10736000E0929401F0929501B12615C0D701C601B3
:10737000B695A79597958795F1D4CCDE82E0C80E97
:10738000D11CE11CF11CC0929201D0929301E092B9
:107390009401F092950191E0891A9108C2CFC090B2
:1073A0009201D0909301E0909401F0909501063401
:1073B00029F0BB82AA82412C512C31C0F601709277
:1073C0005700E89507B600FCFDCFF3CF063479F5FA
:1073D000552051F18090920190909301A0909401DA
:1073E000B09095017FDE242D30E0382BF4010901A7
:1073F00010935700E8951124F2E08F0E911CA11C08
:10740000B11C8092920190929301A0929401B0924B
:10741000950151268A819B8101979B838A83EA810A
:10742000FB81EF2B99F626C05DDE482EF2CF5ADEA7
:10743000682F8091920190919301A0919401B09155
:107440009501B695A7959795879590D480919201CF
:1074500090919301A0919401B09195010296A11D84
:10746000B11D8093920190939301A0939401B093E6
:107470009501D0CF063409F0A9CEF60160925700ED
:10748000E89507B600FCFDCFA1CE933469F4E090F7
:107490009201F090930126DE90E0F7010C01109329
:1074A0005700E895112492CE9336F9F4C0909201DA
:1074B000D0909301E0909401F090950113DEF601D5
:1074C000E16090E00C0110935700E8951124F2E080
:1074D000CF0ED11CE11CF11CC0929201D0929301FD
:1074E000E0929401F092950171CE9D3659F4E091AD
:1074F0009201F091930160925700E89507B600FC65
:10750000FDCF64CE923551F4E0919201F091930158
:10751000E590F4908F2DFEDD8E2D59CE943419F523
:10752000E1DD682F8091920190919301A0919401E7
:10753000B0919501B695A7959795879517D48091A9
:10754000920190919301A0919401B09195010296BE
:10755000A11DB11D8093920190939301A09394017A
:10756000B093950133CE9436F1F4C0909201D0904F
:107570009301E0909401F0909501D701C601B69572
:10758000A79597958795EAD3C5DD82E0C80ED11CF3
:10759000E11CF11CC0929201D0929301E0929401FF
:1075A000F092950103C09B3109F0B0CE7092E900D2
:1075B0009091E8008091E8008E778093E80095FD37
:1075C00011C08091E80080FD04C08EB38111F9CF15
:1075D00015C08091E8008E778093E80003C08EB3D9
:1075E000882361F08091E80080FFF9CF94E09093C8
:1075F000E9008091E8008B778093E80094D3CCCDAC
:107600008091E00081608093E00082E49CED9093A3
:10761000A1018093A0012CE088E190E00FB6F894DE
:10762000A895809360000FBE20936000FFCF1F924B
:107630000F920FB60F9211240F900FBE0F901F9054
:10764000189542E061EC82E062D142E161E883E0BA
:107650005ED142E160E884E05AC180919801982FA0
:107660009F77913299F590919901913229F0923258
:1076700029F1903259F510C0813A41F58091E80026
:10768000877F8093E80067E070E081E091E0A4D01C
:107690008091E8008B770FC08132C1F48091E800BF
:1076A000877F8093E80067E070E081E091E0F5D0AB
:1076B0008091E8008E778093E8000895813231F45C
:1076C0008091E800877F8093E80035C10895292FD5
:1076D00030E02230310539F02330310549F02130D6
:1076E000310561F410C08EE390E02AE331E01EC062
:1076F000882371F0813089F08230A1F080E090E041
:1077000020E030E013C082E190E028E731E00EC0D5
:1077100084E090E026E331E009C088E190E02CE1CC
:1077200031E004C082E190E028E031E0FA013183E9
:107730002083089507B600FCFDCFF999FECF23E022
:10774000FB0120935700E89507B600FCFDCF81E1CF
:1077500080935700E895089507B600FCFDCFF9998E
:10776000FECF25E0FB0120935700E89507B600FC0B
:10777000FDCF81E180935700E895089507B600FC9E
:10778000FDCFF999FECF21E0FB010A0120935700BC
:10779000E8951124089521E2FC012093570084917B
:1077A000089529E0FC012093570084910895E1E0B9
:1077B000F0E089E0809357008491089507B600FCBB
:1077C000FDCFF999FECF809599E0E1E0F0E0082E39
:1077D00090935700E895089520919E0130919F0164
:1077E0002617370748F06115710539F42091E80034
:1077F0002E772093E80001C0B90120E061157105E2
:10780000C9F13EB3332309F442C0353009F441C015
:107810003091E80033FD3FC03091E80032FF06C0F0
:107820008091E80082FF29C080E008953091E8004F
:1078300030FFE4CF2091F20030E0FC01281B390B2F
:10784000CF01820F931F6115710549F088309105B2
:1078500030F481918093F10061507109F1CF21E002
:10786000089709F020E08091E8008E778093E80087
:10787000CF01C4CF2111C5CFD3CF8EB3882339F028
:10788000853039F08091E80083FFCACF04C082E0E0
:10789000089583E0089581E008956115710529F444
:1078A0002091E8002B772093E8006115710511F114
:1078B0002EB3222341F1253041F12091E80023FD30
:1078C0001EC02091E80022FFF3CFFC01CF012091E0
:1078D000F200222329F38091F1008193CF016150BE
:1078E00071096115710591F7DBCF8EB3882359F0CB
:1078F000853059F08091E80080FFF7CF02C081E029
:10790000089580E0089582E0089583E008958F70DF
:107910008093E900EBEEF0E0808181608083EDEE02
:10792000F0E010826093EC0040838091EE00881FAD
:107930008827881F08958091980187FD05C0809150
:10794000E80080FF0DC010C08091E80082FD04C0F7
:107950008EB38111F9CF08958091E8008B7707C02D
:107960008EB38111ECCF08958091E8008E778093DB
:10797000E80008953CD03ED08091D8008F77809366
:10798000D8008091D80080688093D8008091D8007A
:107990008F7D8093D80084E089BD86E089BD09B4DD
:1079A00000FEFDCF1EBA1092960142E060E080E03A
:1079B000AEDF8091E1008E7F8093E1008091E20054
:1079C00081608093E2008091E20088608093E20011
:1079D0008091E0008E7F8093E0000895E3E6F0E080
:1079E00080818E7F808381E080939701C3CF109246
:1079F000E20008951092E10008951F920F920FB6D1
:107A00000F9211242F933F934F935F936F937F9324
:107A10008F939F93AF93BF93EF93FF938091E10078
:107A200080FF16C08091E20080FF12C08091E200CA
:107A30008E7F8093E2008091E20080618093E2007B
:107A40008091D80080628093D80019BC1EBA6AD198
:107A50008091E10084FF2EC08091E20084FF2AC063
:107A600084E089BD86E089BD09B400FEFDCF809128
:107A7000D8008F7D8093D8008091E1008F7E809325
:107A8000E1008091E2008F7E8093E2008091E2002D
:107A900081608093E20080919601882311F084E058
:107AA00007C08091E30087FF02C083E001C081E04E
:107AB0008EBB38D18091E10083FF21C08091E2002C
:107AC00083FF1DC08091E100877F8093E10082E009
:107AD0008EBB109296018091E1008E7F8093E10031
:107AE0008091E2008E7F8093E2008091E2008061CD
:107AF0008093E20042E060E080E009DF13D1FF9173
:107B0000EF91BF91AF919F918F917F916F915F9115
:107B10004F913F912F910F900FBE0F901F9018958E
:107B20001F93CF93DF9300D0CDB7DEB7E8E9F1E044
:107B30008091F100819381E0E03AF807C9F78DDD8B
:107B40008091E80083FFDAC09091980180919901BB
:107B5000853009F465C030F4813059F168F0833024
:107B600041F1CCC0883009F49CC0893009F4ABC025
:107B7000863009F0C3C075C0903881F0923809F0A2
:107B8000BDC080919C018F708093E9009091EB00C3
:107B900095FB992790F91092E90001C090E080913F
:107BA000E800877F8093E8009093F1001092F10045
:107BB00083C0292F2D7F09F0A1C0923009F09EC00B
:107BC00090919A01911126C020919C012F7009F487
:107BD00095C02093E9009091EB0090FF1BC083308B
:107BE00021F48091EB00806213C08091EB008061F2
:107BF0008093EB0081E090E0022E01C0880F0A9490
:107C0000EAF78093EA001092EA008091EB00886026
:107C10008093EB001092E9008091E800877F4FC0CD
:107C200091116CC010919A011F778091E3008078C8
:107C3000812B8093E3008091E800877F8093E800A8
:107C40007ADE8091E80080FFFCCF8091E3008068BD
:107C50008093E300112311F083E001C082E08EBB2A
:107C60004DC09058923008F049C0AE014F5F5F4F51
:107C700060919C0180919A0190919B0128DD009771
:107C800009F43CC02091E800277F2093E800BC0164
:107C900089819A81A1DD8091E8008B778093E8004B
:107CA0002DC0903859F58091E800877F8093E800D7
:107CB000809196018093F1008091E8008E77809307
:107CC000E80039DE1BC0911119C090919A019230E1
:107CD000A8F48091E800877F8093E8009093960154
:107CE0002ADE80919601811104C08091E30087FF14
:107CF00002C084E001C081E08EBBA3DC8091E8007B
:107D000083FF0AC08091E800877F8093E80080911C
:107D1000EB0080628093EB000F900F90DF91CF918A
:107D20001F9108950895CF938EB38823A9F0809171
:107D3000E9008F709091EC0090FF02C090E801C0C4
:107D400090E0C92FC82B1092E9008091E80083FDD4
:107D5000E7DECF70C093E900CF910895F999FECF87
:107D600092BD81BDF89A992780B50895262FF9997B
:107D7000FECF1FBA92BD81BD20BD0FB6F894FA9A0E
:0C7D8000F99A0FBE01960895F894FFCF09
:107D8C00010000000000000812034C0055004600E2
:107D9C00410020004300440043000000180344004D
:107DAC00650061006E002000430061006D006500FD
:107DBC007200610000000403090409023E00020184
:107DCC0000803209040000010202010005240010A9
:107DDC0001042402020524060001070582030800A1
:107DEC00FF09040100020A0000000705040210004C
:107DFC00050705830210000512011001020000089E
:107E0C00EB034A200001010200014C55464143445A
:027E1C00430021
:107FA000C9CBDACBEBCBF7CBFCCB01CC07CC08951C
:087FB000089508950895089555
:107FE000DFCFDFCFDFCFDFCFDFCFDFCFDFCFDFCF21
:087FF000DFCFDFCFDFCFDFCFD1
:087FF8000070000000DFFBDC5B
:040000030000700089
:00000001FF
