:200000000C947A010C94A2010C94A2010C94A2010C94A2010C94A2010C94A2010C94A201F0
:200020000C94A2010C94A2010C9418080C9495080C94A2010C94A2010C94A2010C94A20131
:200040000C94A2010C94A2010C94A2010C94A2010C94A2010C94A2010C94A2010C94D00754
:200060000C94A2010C94A2010C94A2010C94A2010C94A2010C94A2010C94A2010C94A20168
:200080000C94A2010C94A2010C94A2010C94A2010C94A2010C94A2010C94A2010C94A20148
:2000A0000C94A2010C94A2010C94A2013B00666666666666003B2069643D003B20626F6FD8
:2000C000746C6F636B3D003B206B62645F6C61796F75743D003B206B62645F64656C617906
:2000E0005F6B65793D003B206B62645F64656C61795F73746172743D003B206B62645F6309
:200100006F6E663D0076657273696F6E3D312E302E3000646F6E65004C6F636B696E672E94
:200120002E2E00646F6E650046756C6C20756E6C6F636B2E2E2E00646F6E6500556E6C6FB0
:20014000636B696E672E2E2E00080B0002020201000904000001020200000524001001059E
:20016000240101010424020605240600010705810310004009040100020A000000070502F0
:2001800002400000070583024000000403090412010002EF020140412336800001010203D0
:2001A00001416E794B6579206276626100416E794B65790005010906A101050719E029E715
:2001C00015002501750195088102050C95017508150026FF00190029FF81000508190129DE
:2001E00008950875019102050795067508150026E700190029E78100C00000000024002756
:20020000002A002D00300000000000000000002A2B280000000000000000000000000000DA
:20022000000000000000002C9EB4A0A1A2A434A6A7A5AE362D3738271E1F202122232425E0
:2002400026B333B62EB7B89F8485868788898A8B8C8D8E8F909192939495969798999A9B2C
:200260009C9D2F3130A3AD350405060708090A0B0C0D0E0F101112131415161718191A1BBC
:200280001C1DAFB1B0B50000000000250028002B002E003100040404040403040502020263
:2002A0000204030202020206060606060604040202020404040802011040804010204080E4
:2002C000408008020401804020100201108010204040200000000200090F000003040100DA
:2002E0000C0000000000000000000000000000000000C60A11241FBECFEFDAE0DEBFCDBF6F
:2003000011E0A0E0B1E0E2EFF9E102C005900D92AA3FB107D9F722E0AAEFB1E001C01D922D
:20032000A938B207E1F711E0CAE7D1E004C02197FE010E94C80CC937D107C9F70E94570B6B
:200340000C94E80C0C940000E0EEF2E02491E1ECF2E03491E2EAF2E09491992309F12223F2
:2003600071F021502F3058F4E22FF0E0E651F34F0C94C80C209180002F7720938000E92F10
:20038000F0E0EE0FFF1FE957FD4FA591B4919FB7F894EC91811132C030953E233C939FBF35
:2003A0000895209180002F7DE8CF20918000277FE4CF24B52F7724BDE2CF24B52F7DFBCF22
:2003C000209190002F7720939000D9CF209190002F7DF9CF20919000277FF5CF2091C0007A
:2003E0002F772093C000CBCF2091C0002F7DF9CF2091C200277F2093C200C1CF3E2BCECF41
:20040000FC0180911A02882311F13FB7F89482E08093E9002091F200822F90E01816190614
:2004200014F481E090E0882339F0289844E6409319024091F1004083222339F02091F200A1
:20044000211103C02BE62093E8003FBF08958FEF9FEF089583E08093E9008091F2008823AA
:2004600019F08AE38093E80008950C942A02CF92DF92EF92FF920F931F93CF93DF937C0119
:200480006A0110E000E00C151D0581F0EB01D701ED91FC910190F081E02D6991C70109952F
:2004A000892B21F00F5F1F4FBE01EDCFC801DF91CF911F910F91FF90EF90DF90CF900895BE
:2004C00080910C0281110DC082E08093080284E08093090210920B0210920A0281E08093CC
:2004E0000C0288E092E00895CF93DF930F92CDB7DEB76983DC01ED91FC910280F381E02D12
:2005000041E050E0BE016F5F7F4F09950F90DF91CF9108950F931F93CF93DF938C01D0E020
:20052000C0E0F801EC0FFD1F6491662341F08BE192E00E947402892B11F02196F2CFCE016A
:20054000DF91CF911F910F910895CF93DF930F92CDB7DEB7FC018485958597FD08C02FEFB6
:200560003FEF358724870F90DF91CF910895CE0101960E940002019719F4898190E0F3CFEF
:200580008FEF9FEFF0CF0F931F93CF93DF930F92CDB7DEB78C01FC018485958597FF0BC0A0
:2005A000CE0101960E940002019771F4898190E0F80195878487F801848595850F90DF916F
:2005C000CF911F910F9108958FEF9FEFF1CFFC018485958597FD0BC09FB7F89482E080932C
:2005E000E9008091F2009FBF90E0019608959FB7F89482E08093E9008091F2009FBF90E0FC
:2006000008953FB7F8948091040290910502A0910602B091070226B5A89B05C02F3F19F09F
:200620000196A11DB11D3FBFBA2FA92F982F8827BC01CD01620F711D811D911D42E0660FF5
:20064000771F881F991F4A95D1F708958F929F92AF92BF92CF92DF92EF92FF924B015C01F0
:200660000E9401036B017C010E9401036C197D098E099F09683E734081059105A8F321E0EA
:20068000821A9108A108B10888EEC80E83E0D81EE11CF11C81149104A104B10429F7FF90E1
:2006A000EF90DF90CF90BF90AF909F908F900895FC0182818F5BFB01808381E008950895F0
:2006C00090E080E008954091FC015091FD012091FA013091FB0142175307B4F49091E80033
:2006E0009570E1F39091E80092FD19C08093F1008091FC019091FD0101968F739927892B72
:2007000019F48EEF8093E8008091FC019091FD0101969093FD018093FC0181E0089580E001
:200720000895EF92FF920F931F93CF93DF93F82E192FE62E042F81E0860F880F0E94630398
:2007400083E00E946303CF2DD12FEC0EFD2EF11CCE15DF05B9F007FF13C0FE0184910E9401
:200760006303182F80E00E946303812321968111EFCFDF91CF911F910F91FF90EF900895EE
:200780008881EDCF81E0F5CFDF92EF92FF920F931F93CF93DF93D82E8A01EB017B01E40ED9
:2007A000F51ECE15DF0559F0D7FE12C0FE0184910E94630321968111F4CF0FEF1FEFC80172
:2007C000DF91CF911F910F91FF90EF90DF9008958881EECFFB0120812138B1F42381223286
:2007E00099F4DC0112964C911297248135814217130651F421E057962C9345E450E064EBFA
:2008000071E080E80C94C40390E080E00895CF93DF93CDB7DEB769970FB6F894DEBF0FBEA3
:20082000CDBFFC01DB019C919F5F9C939E012D5F3F4F81E1D9011D928A95E9F729E02983A1
:2008400084E08A8391E09D8383E08E839F8398872A8721E22B879C879D879F8722E2288B57
:2008600025E4298B27E02B8B25E02C8B8E8B20E430E0388F2F8B998F82818B83838180686F
:200880008D8B49E150E0BE016F5F7F4F80E00E94C40369960FB6F894DEBF0FBECDBFDF910C
:2008A000CF9108950F931F93CF93DF930F92CDB7DEB782E0898342E450E069E471E080E88F
:2008C0000E94C4030E946002DC0112960D911C910115110589F0D801ED91FC910280F3815C
:2008E000E02DBE016F5F7F4FC801099597FD04C0F80100851185ECCF89810F90DF91CF9189
:200900001F910F9108952FB7F89487708093E9009091E800892F807295FF04C09091F20067
:2009200080E4891B2FBF089583E00E94830490E008957F928F929F92AF92BF92CF92DF92C4
:20094000EF92FF920F931F93CF93DF93C82E8B017A0180911A02811110C08FEF9FEFDF9155
:20096000CF911F910F91FF90EF90DF90CF90BF90AF909F908F907F9008958091150280FFBC
:2009800005C08091E00082608093E000CE2DDF2DD12C8AEFB82E8C2D8770982E8C2D807248
:2009A000882E8C2D8074782E9AE3A92E209719F4DD2009F45AC08C2D0E94830481110AC0C4
:2009C000BA94BB2051F261E070E080E090E00E942603ECCF8C171D0611F00CF08C2F9FB7F0
:2009E000F8949092E9002091E80025FD02C09FBFDDCF282F30E0C21BD30B882029F0815025
:200A000060F01092F100FBCF502F412FC7FE10C0F801815040F4020F131FDD2099F0A092AC
:200A2000E800D12CE4CF44914093F1003196F1CF815088F3E52FF42F41914093F1005E2F58
:200A40004F2FF6CF8091E80085FD07C0A092E800DD24D394209759F2E4CF209741F6772055
:200A600009F4C5CFA092E800C2CF5D9884E68093FE01C70174CFCF93DF93EC0180910B01E0
:200A8000882331F083E00E9499041816190634F081E090E09B838A8380E090E0DF91CF91DB
:200AA0000895615030F0FC018091F1008193CF01F8CF289884E6809319020895AF92BF9297
:200AC000DF92EF92FF920F931F93CF93DF935C018B01EB019BEFD92E2097C1F07E01C13429
:200AE000D1051CF080E4E82EF12C8091E80082FFFCCFC8018C1B9D0B6E2D8A0D9B1D0E9494
:200B00005105D092E800CE19DF09E6CFC801DF91CF911F910F91FF90EF90DF90BF90AF90BD
:200B20000895CF93DF93EC01FB012A81848195812817190609F04BC081819081913A79F4E8
:200B4000813029F0833039F48F898093F10081E0DF91CF9108958230D1F5888DF6CF9132EC
:200B6000B1F58B3019F482818F8BF1CF8A3019F48281888FECCF893051F5668177818381AC
:200B8000833079F48C8D9D8D6817790701F58A8D9B8D0E945E058C8D9D8D90689D8F8C8F37
:200BA000D6CF823051F46130710589F461E070E0CE0149960E945E05CACF813041F46830BA
:200BC000710529F468E070E0CE010E96F3CF80E0BFCFFC0134969C01245F3F4F90E080E082
:200BE000419141110196DF0111971C92E217F307B9F70895FC0190E2960F9830F8F0DF0120
:200C0000169630E020E08D91442351F0681711F081110CC0E20FF31F668381E090E008951A
:200C2000681304C0E20FF31F1682F7CF2F5F3F4F2630310541F790E080E00895848161E081
:200C400070E001C0660F9A95EAF7442319F0682B6483E3CF60956823FBCFEF92FF920F9364
:200C60001F93CF93DF937C01D42F67FF11C081E090E0D70113969C938E93129710E000E01C
:200C8000C801DF91CF911F910F91FF90EF900895E0911702F0911802E60FF11DC4916C2FA8
:200CA0006F77DC01ED91FC910484F585E02D09958C01C7FFE5CF892B11F4D111E1CFD7018F
:200CC000ED91FC910484F585E02D4D2F61EEC7010995082B192BD4CFFF920F931F93CF9368
:200CE000DF93EC01F62E41E00E942D068C01892BA9F0E881F9810284F385E02DCE01099546
:200D000040E06F2DCE010E942D06892B39F0E881F9810284F385E02DCE010995C801DF9102
:200D2000CF911F910F91FF9008956115710579F0FB0101900020E9F73197AF01461B570BBA
:200D4000DC01ED91FC910280F381E02D099490E080E00895CF93DF930E948A02EC0165E466
:200D600071E08BE192E00E9495068C0F9D1FDF91CF9108958F929F92AF92BF92CF92DF928D
:200D8000EF92FF920F931F93CF93DF93CDB7DEB7A1970FB6F894DEBF0FBECDBFC82ED12C8E
:200DA000F12CE12C19A28E010F5D1F4F8AE0882E912CA12CB12CC701B601A50194010E9402
:200DC000A60C605DF80162938F01FAE0CF16D104E104F104C0F4B8018BE192E00E94950630
:200DE000A1960FB6F894DEBF0FBECDBFDF91CF911F910F91FF90EF90DF90CF90BF90AF90EB
:200E00009F908F90089569017A01D5CFCF93DF93BC018BE192E00E949506EC0165E471E02B
:200E20008BE192E00E9495068C0F9D1FDF91CF9108951F93CF93DF9385E091E00E948A0249
:200E400089EF90E00E948A028FEF90E00E94CE0C0E94BA0686EE90E00E948A028EEF93E0AE
:200E60000E94CE0C0E94BA0685ED90E00E948A028CEF93E00E94CE0C0E94BA0687EC90E0D5
:200E80000E948A028DEF93E00E94CE0C0E94BA068BEB90E00E948A028FEF93E00E94CE0CD6
:200EA0000E94BA0685EB90E00E948A02C0E0D1E010E0CE010E94CE0C8F3FB9F0682F8BE1BC
:200EC00092E00E9474022196C33081E0D80789F7112321F08EEA90E00E948A028CEA90E0DD
:200EE000DF91CF911F910C94AA0611E0ECCF81110BC08BE192E00E94E702892B09F44FC0F0
:200F00008BE192E00E94A502863511F40C9419078835C9F48CE391E00E948A0264E170E00D
:200F200080E090E00E9426036AEB8FEF93E00E94D60C87E391E00E94AA0664E170E080E02A
:200F400090E00C942603853591F488E291E00E948A0264E170E080E090E00E9426036FEF82
:200F60008FEF93E00E94D60C83E291E0E4CF8C3491F488E191E00E948A0264E170E080E031
:200F800090E00E9426036BEB8FEF93E00E94D60C83E191E0D0CF88E491E00C9406070895B0
:200FA0001F921FB61F9211242F933F938F939F93AF93BF938091000290910102A0910202DD
:200FC000B09103023091FF0123E0230F2D3750F50196A11DB11D2093FF018093000290931E
:200FE0000102A0930202B09303028091040290910502A0910602B09107020196A11DB11D8A
:201000008093040290930502A0930602B0930702BF91AF919F918F913F912F911F901FBE0A
:201020001F90189526E8230F0296A11DB11DD3CF1F920F920FB60F9211242F933F934F93EB
:201040005F936F937F938F939F93AF93BF93CF93EF93FF93C091E1008091E100837F8093F3
:20106000E100C3FF0FC01092E90081E08093EB001092EC0082E38093ED0010921A0288E0FB
:201080008093F000C2FF1AC00E942A028091FE01882341F08091FE0181508093FE01811173
:2010A00001C05D9A80911902882341F080911902815080931902811101C0289AC4FF23C08A
:2010C0008091E2008E7E81608093E2008091E1008F7E8093E100809115028E7E8061809320
:2010E0001502FF91EF91CF91BF91AF919F918F917F916F915F914F913F912F910F900FBEAD
:201100000F901F901895C0FFECCF8091E2008E7E80618093E2008091E1008E7E8093E10093
:20112000809115028E7E8160DACF1F920F920FB60F921124CF92DF92EF92FF920F931F93CC
:201140002F933F934F935F936F937F938F939F93AF93BF93EF93FF93CF93DF93CDB7DEB72A
:201160006C97DEBFCDBF1092E9008091E80083FF21C068E0CE0145960E94510582EF8093EE
:20118000E8009D8997FF35C08091E80080FFFCCF892F807609F03BC12E89211131C090382E
:2011A00061F5809116028093F1001092F1008EEF8093E8006C960FB6F894DEBF0FBECDBF58
:2011C000DF91CF91FF91EF91BF91AF919F918F917F916F915F914F913F912F911F910F918F
:2011E000FF90EF90DF90CF900F900FBE0F901F9018958EEF8093E800CBCF1092F100D5CF63
:201200004F89588D213059F49111D1CF4130510571F6809116028D7F80931602C8CF2330B9
:2012200049F49111C4CF4130510509F6809116028260F2CF8F89253041F49091E80090FF70
:20124000FCCF80688093E300B2CF188D263009F0A7C0EB8CFC8C1092E9001092FD0110923D
:20126000FC01123071F51092FB011092FA010E9452041F8299E099831A8391E09E8390EAB7
:2012800098879AEF99872091FC013091FD01275F3F4F3C832B838D831092E9001092FD015D
:2012A0001092FC01F092FB01E092FA0149E050E0BE016F5F7F4F80E00E94C4030E9452042F
:2012C00076CFF092FB01E092FA010E946002DC011296ED90FC90E114F10409F43DC1D7018F
:2012E000ED91FC910480F581E02DBE016B5E7F4FC7010995009709F02AC1F701E084F184D4
:20130000EACF133071F48F89882309F440C0823061F440E866E08DEA91E00E949103811187
:2013200046CF81E28093EB0045CF813029F440E86BE081EA91E0F1CF833099F70E946002FF
:20134000DC011296ED90FC908E010F5F1F4F6801E114F10479F0D701ED91FC910680F781F7
:20136000E02DB801C7010995080F111DF701E084F184EECFD8011C92F60101900020E9F75F
:201380003197BF016C197D0940E0C601C6CF6BE871E0FB01449150E080E80E94C40307CFF2
:2013A000273009F4BECF283021F481E08093F100FECE293009F0FBCE937001F5EDE0F1E0FC
:2013C00081E031E096E32191211109C08EE78093EA001092EA008F8980931A02E8CE809367
:2013E000E9003093EB00DF0111972C912093EC009093ED008F5F873031F7E8CF2B8D3C8D5D
:20140000232B09F08ECF612F90E00E94D60C8B8D9C8D1092E9001092FD011092FC01909376
:20142000FB018093FA01898D811177C08E899D89913A49F4813209F074CF47E050E064E0F4
:2014400071E080E0AACF913209F06BCF833269F48F89988DB0E0A0E08093000190930101D4
:20146000A0930201B0930301A2CE803209F07AC067E070E084E091E00E945E058091140202
:20148000EEEFFAE0811102C0E0E0F8E08091040190910501A0910601B0910701803B94405C
:2014A000A105B105B9F480910B0180FD13C0EE3F8AE0F80721F587E797E79183808388E19E
:2014C0009BE00FB6F894A895809360000FBE909360006DCE0FB6F894A8958091600088611D
:2014E00080936000109260000FBEA895EE3FAAE0FA0761F41092FF0A1092FE0A58CE8081E4
:2015000091819093FF0A8093FE0AD5CF8091FE0A9091FF0A918380834ACE0E946002FC015B
:20152000028113810115110509F4FBCED801ED91FC910190F081E02DBE016B5E7F4FC80190
:201540000995811134CEF80100851185EBCF181619060CF42CCEE5CE113009F0D2CE6FE860
:2015600071E017CF823209F022CE8F8980930B0185CFBC01625F7F4FFC01838148E050E067
:2015800080640C9499040A970C94B90ACF93DF9310921E0210921D0288EE93E0A0E0B0E0D6
:2015A00080931F0290932002A0932102B093220287E191E090931C0280931B028FEF9FEF9F
:2015C000909328028093270281E080936F028093700221E832E030937202209371021092FE
:2015E000740210927302109278021092770229E231E030936C0220936B0227E331E03093DC
:201600007602209375028093820280938302109284021092860210928502109288021092B0
:20162000870281EC809381020E946002FC01818190916F02482F490F5527551F48305105FC
:201640009CF5A281B381109709F52BE632E033832283208120936D0280936E0280917002B6
:20166000820F808320917102A22FB09172028A2F821B8917C8F481813D91C82FD0E0C45FE0
:20168000DE4F38838F5F8183F2CFD90118962D913C91199721153105C1F72BE632E01996F6
:2016A0003C932E931897D5CFDF91CF910895789484B5826084BD84B5816084BD85B58260FB
:2016C00085BD85B5816085BD80916E00816080936E0010928100809181008260809381005F
:2016E0008091810081608093810080918000816080938000809191008260809391008091A5
:201700009100816080939100809190008160809390008091C10084608093C1008091C10032
:2017200082608093C1008091C10081608093C1008091C30081608093C3008091C00082602E
:201740008093C0008091C20081608093C20080917A00846080937A0080917A0082608093B1
:201760007A0080917A00816080937A0080917A00806880937A0010921A02109216021092DC
:2017800015028091D70081608093D70080EA8093D80089B5806189BD89B5826089BD09B4A2
:2017A00000FEFDCF61E070E080E090E00E9426038091D8008F7C80618093D8008091E00082
:2017C000807F8093E0008091E1008E7E8093E1008DE08093E200559A209AEEEFFFE7859141
:2017E00094918B3F9C4D19F481E080931402E1ECF2E02491E2EAF2E08491882399F090E0CF
:20180000880F991FFC01E750FE4FA591B491FC01E957FD4F859194918FB7F894EC91E22B5D
:20182000EC938FBF85E792E00E94E90585E792E00E94C30A8FEF9FEF90932802809327028B
:2018400087E092E0909318028093170281E00E94A40160E273E080E090E00E94260360E628
:2018600071E085E792E00E9495066DE085E792E00E946C0680E00E94A40160E971E080E01C
:2018800090E00E94260381E00E94A40160E273E080E090E00E94260380E00E94A40180E727
:2018A00091E00E9406070E9419078CE991E00E940607C0E0D0E081E00E94A4018BE192E0DB
:2018C0000E94E702892B51F18BE192E00E94E702892B21F18BE192E00E94A5028F3F99F5D5
:2018E0008BE192E00E94E702892B91F08BE192E00E94A5028E3F910559F480E00E947707F3
:2019000064E670E080E090E00E9426030E942A026AE070E080E090E00E94260364E670E0F5
:2019200080E090E00E94260380E00E94A40164E670E080E090E00E942603209709F4BBCFF2
:201940000E940000B8CF0E947707E2CFA1E21A2EAA1BBB1BFD010DC0AA1FBB1FEE1FFF1F8E
:20196000A217B307E407F50720F0A21BB30BE40BF50B661F771F881F991F1A9469F7609516
:201980007095809590959B01AC01BD01CF010895EE0FFF1F0590F491E02D0994F999FECF56
:2019A00092BD81BDF89A992780B50895262FF999FECF92BD81BDF89A019700B4021639F016
:2019C0001FBA20BD0FB6F894FA9AF99A0FBE0895F894FFCFD901DD01BA01D101D501BF013A
:2019E000BF01BF01E001E601EA01EE01F401BF01F801FFFFFFFF00E100000000000000C179
:201A000080810000000000000074023B0594043502E702A502C3020000000091050704EA60
:201A2000035803B90AF6FF00006C06370260035F03E905C30AFA050D0A004552524F523A8B
:201A400020556E6B6E6F776E20636F6D6D616E6421007777772E616E796B65792E73686FBA
:201A60007000416E794B657920666163746F72792074657374696E6720696D6167652063C9
:201A80006F6E66696775726174696F6E3D00496E2073657269616C207479706520275827F5
:201AA00020746F20756E6C6F636B206F6E63652C2027552720666F722066756C6C20756E86
:201AC0006C6F636B2C20274C2720746F206C6F636B2C2027562720746F2073686F77206354
:201AE0006F6E66696720696E666F0000FFFFFFFFFFFFFFFFFFFFFFFFFFFFFFFFFFFFFFFF1B
:201B0000CF900C94EC04C1E0BDCF81E090E0D5CF682F8FE694E00E94000DE1CFCF92DF9283
:201B2000EF92FF920F931F93CF936C0181E00E945C0381EFE82E82E0F82E81EF93E0F70125
:201B40002FEF21938E179F07E1F764E170E080E090E00E94EC0485E194E00E94AD04892BB8
:201B600031F464E170E080E090E00E94EC0485E194E00E94AD04892B31F464E670E080E049
:201B800090E00E94EC0485E194E00E94AD04C0E0892B09F110E000E085E194E00E946B040D
:201BA000C11122C08C011127C1E0F6CF10E000E0F70161917F016F3F29F0C601800F911F3F
:201BC0000E94B9190F5F1F4F0115F1E01F0781F780E00E945C038C2FCF911F910F91FF90D5
:201BE000EF90DF90CF900895F801EF50FD4F80838823E1F2C0E0D0CF6115710579F0FB0166
:201C000001900020E9F73197AF01461B570BDC01ED91FC910280F381E02D099490E080E0A0
:201C2000089564E771E085E194E00C94FC0DCF93DF93BC0185E194E00E94EF03EC010E945A
:201C4000110E8C0F9D1FDF91CF9108958F929F92AF92BF92CF92DF92EF92FF920F931F9385
:201C6000CF93DF93CDB7DEB7A1970FB6F894DEBF0FBECDBF6B017C0119A2423008F44AE0BC
:201C80008E010F5D1F4F842E912CB12CA12CC701B601A50194010E94FD196A3024F5605DE0
:201CA000F80162938F01C814D904EA04FB04C0F4BF0185E194E00E94FC0DA1960FB6F8947F
:201CC000DEBF0FBECDBFDF91CF911F910F91FF90EF90DF90CF90BF90AF909F908F90089599
:201CE00069017A01D4CF695CDBCFCF92DF92EF92FF92CF93DF936B017C018DE20E946604D1
:201D0000EC0166277727CB016C197D098E099F094AE00E94260E8C0F9D1FDF91CF91FF90DF
:201D2000EF90DF90CF900895CF93DF93BC01990F880B990B97FF0AC00E94750EEC010E9435
:201D4000110E8C0F9D1FDF91CF9108954AE00E94260EF4CF0F931F93CF93DF938C01C5E67D
:201D6000D0E085E194E00E94AD04892BB9F462E370E080E090E00E94EC04219791F76CEA98
:201D800070E085E194E00E94EF03C8010E94940E80E0DF91CF911F910F91089581E0F9CF32
:201DA000682F70E090E080E04AE00C94260ECF93DF930E94D00EEC010E94110E8C0F9D1F15
:201DC000DF91CF910895CF93DF93BC0185E194E00E94FC0DEC010E94110E8C0F9D1FDF910B
:201DE000CF9108950C94FC0D8F929F92AF92BF92CF92DF92EF92FF920F931F93CF93DF934D
:201E0000F82EE7E1F1E0C1EFD2E0DE0181918D9381E0E633F807D1F7E0E1F3E089E993E0D6
:201E200011928E179F07E1F7EBECF0E0E49190917B008E2F880F880F80729F7D892B809364
:201E40007B00E770E064E0937C0080917A00806480937A0080917A0086FDFCCF609178003F
:201E6000209179003FB7F8948091F9039091FA03A091FB03B091FC033FBF722F680F791F6E
:201E8000072E000C880B990B611571058105910511F00E949F1901ED12E0812C912C5401C8
:201EA0008A940E945019A50194010E94CB19D8016D938D01B2E0003F1B0799F76BEE70E0A5
:201EC00085E194E00E94EF0301ED12E090EFC92E92E0D92ED801ED918D01F0E084E0F59522
:201EE000E7958A95E1F7E958FE4F60816F8F85E194E00E945004F8013197E081EF70F0E0E1
:201F0000E958FE4F608168A385E194E00E9450042296C016D106F1F6FF2051F169EE70E023
:201F200085E194E00E94EF0300E011E0C8010E94B119C82FE82FF0E0B4E0F595E795BA9566
:201F4000E1F7E958FE4F608185E194E00E945004CF70EC2FF0E0E958FE4F608185E194E0F7
:201F60000E9450040F5F1F4F0330B1E01B07F1F60E94110E68EC70E080E090E00E94EC04FB
:201F800082E090E00E94AA0E182FC0E9D2E0A0EDAA2EA2E0BA2E6E0181110EC0812FDF91B5
:201FA000CF911F910F91FF90EF90DF90CF90BF90AF909F908F90089585E194E00E946B0431
:201FC000F60181936F01AE16BF06B1F71092D00285E194E00E94AD04892B21F085E194E015
:201FE0000E946B048DE590E0FF2061F1EEE4CE2EE3E0DE2EF3E0EF2EFF24F394C7010E94DC
:20200000B119E82FF0E074E0F595E7957A95E1F7E958FE4F9081D6019C938F70E82FF0E043
:20202000E958FE4F808111968C93BFEFEB1AFB0AE2E0CE0ED11CF3E2EF16F1E0FF06F1F671
:202040008DE990E08F509D4FDC011C9240E250E069EC70E08BEE94E00E94A81910928704D0
:20206000109288041092890410928A0410924B0561EF72E083E894E00E94F20E0E9405090E
:202080002BEE34E04BE055E0F90161917191819191910E94FD18DF0114976D937D938D931F
:2020A0009C9313974E175F0781F7D901ED919D01AE2FAF70B0E0A958BE4F8C919881F0E06E
:2020C00064E0F595E7956A95E1F7E958FE4F6081062E000C770B9617170661F46981082E6F
:2020E000000C990B6817190629F4229642175307E1F654CF10E052CF1F921FB61F92112493
:202100002F933F938F939F93AF93BF938091F9039091FA03A091FB03B091FC033091F803ED
:2021200023E0230F2D3750F50196A11DB11D2093F8038093F9039093FA03A093FB03B0934D
:20214000FC038091FD039091FE03A091FF03B09100040196A11DB11D8093FD039093FE037B
:20216000A093FF03B0930004BF91AF919F918F913F912F911F901FBE1F90189526E8230F4B
:202180000296A11DB11DD3CF1F920F920FB60F9211242F933F934F935F936F937F938F93EE
:2021A0009F93AF93BF93CF93EF93FF93C091E1008091E100837F8093E100C3FF0FC0109296
:2021C000E90081E08093EB001092EC0082E38093ED001092140488E08093F000C2FF1AC004
:2021E0000E94E2038091F703882341F08091F70381508093F703811101C05D9A8091130416
:20220000882341F080911304815080931304811101C0289AC4FF23C08091E2008E7E816024
:202220008093E2008091E1008F7E8093E10080910E048E7E806180930E04FF91EF91CF9111
:20224000BF91AF919F918F917F916F915F914F913F912F910F900FBE0F901F901895C0FF08
:20226000ECCF8091E2008E7E80618093E2008091E1008E7E8093E10080910E048E7E8160CC
:20228000DACF1F920F920FB60F921124CF92DF92EF92FF920F931F932F933F934F935F9308
:2022A0006F937F938F939F93AF93BF93EF93FF93CF93DF93CDB7DEB76C97DEBFCDBF109253
:2022C000E9008091E80083FF21C068E0CE0145960E94A00B82EF8093E8009D8997FF35C05D
:2022E0008091E80080FFFCCF892F807609F03BC12E89211131C0903861F580910F048093C9
:20230000F1001092F1008EEF8093E8006C960FB6F894DEBF0FBECDBFDF91CF91FF91EF9198
:20232000BF91AF919F918F917F916F915F914F913F912F911F910F91FF90EF90DF90CF9021
:202340000F900FBE0F901F9018958EEF8093E800CBCF1092F100D5CF4F89588D213059F472
:202360009111D1CF4130510571F680910F048D7F80930F04C8CF233049F49111C4CF4130CA
:20238000510509F680910F048260F2CF8F89253041F49091E80090FFFCCF80688093E3003E
:2023A000B2CF188D263009F0A7C0EB8CFC8C1092E9001092F6031092F503123071F5109238
:2023C000F4031092F3030E94A10A1F8299E099831A8391E09E8390EA98879AEF99872091C9
:2023E000F5033091F603275F3F4F3C832B838D831092E9001092F6031092F503F092F40361
:20240000E092F30349E050E0BE016F5F7F4F80E00E94130A0E94A10A76CFF092F403E09204
:20242000F3030E943C04DC011296ED90FC90E114F10409F43DC1D701ED91FC910480F58174
:20244000E02DBE016B5E7F4FC7010995009709F02AC1F701E084F184EACF133071F48F89EE
:20246000882309F440C0823061F440E866E081E593E00E94E009811146CF81E28093EB00D3
:2024800045CF813029F440E86BE085E493E0F1CF833099F70E943C04DC011296ED90FC9098
:2024A0008E010F5F1F4F6801E114F10479F0D701ED91FC910680F781E02DB801C7010995E8
:2024C000080F111DF701E084F184EECFD8011C92F60101900020E9F73197BF016C197D0987
:2024E00040E0C601C6CF6FE273E0FB01449150E080E80E94130A07CF273009F4BECF283085
:2025000021F481E08093F100FECE293009F0FBCE937001F5EDE0F1E081E031E096E3219126
:20252000211109C08EE78093EA001092EA008F8980931404E8CE8093E9003093EB00DF011F
:2025400011972C912093EC009093ED008F5F873031F7E8CF2B8D3C8D232B09F08ECF612F2E
:2025600090E00E94B9198B8D9C8D1092E9001092F6031092F5039093F4038093F303898D3D
:20258000811177C08E899D89913A49F4813209F074CF47E050E064E071E080E0AACF9132B6
:2025A00009F06BCF833269F48F89988DB0E0A0E08093000190930101A0930201B0930301D3
:2025C000A2CE803209F07AC067E070E084E091E00E94AD0B80910D04EEEFFAE0811102C0B3
:2025E000E0E0F8E08091040190910501A0910601B0910701803B9440A105B105B9F48091DC
:202600000B0180FD13C0EE3F8AE0F80721F587E797E79183808388E19BE00FB6F894A8953D
:20262000809360000FBE909360006DCE0FB6F894A89580916000886180936000109260003F
:202640000FBEA895EE3FAAE0FA0761F41092FF0A1092FE0A58CE808191819093FF0A809396
:20266000FE0AD5CF8091FE0A9091FF0A918380834ACE0E943C04FC0102811381011511051A
:2026800009F4FBCED801ED91FC910190F081E02DBE016B5E7F4FC8010995811134CEF80137
:2026A00000851185EBCF181619060CF42CCEE5CE113009F0D2CE63E373E017CF823209F045
:2026C00022CE8F8980930B0185CFBC01625F7F4FFC01838148E050E080640C94E80A0A97C3
:2026E0000C946513CF93DF93109218041092170488EE93E0A0E0B0E08093190490931A0409
:20270000A0931B04B0931C048AE391E090931604809315048FEF9FEF909322048093210430
:2027200081E08093690480936A042BE734E030936C0420936B0410926E0410926D041092F3
:202740007204109271042CE431E030936604209365042AE531E03093700420936F048093F2
:202760007C0480937D0410927E041092800410927F04109282041092810481EC80937B0488
:202780000E943C04FC01818190916904482F490F5527551F483051059CF5A281B3811097AE
:2027A00009F525E634E0338322832081209367048093680480916A04820F808320916B0430
:2027C000A22FB0916C048A2F821B8917C8F481813D91C82FD0E0C45FDE4F38838F5F818351
:2027E000F2CFD90118962D913C91199721153105C1F725E634E019963C932E931897D5CF80
:2028000010928604109285048CE691E09093840480938304DF91CF910895CDB7DEB7C45699
:20282000D1090FB6F894DEBF0FBECDBF789484B5826084BD84B5816084BD85B5826085BD56
:2028400085B5816085BD80916E00816080936E0010928100809181008260809381008091FE
:20286000810081608093810080918000816080938000809191008260809391008091910093
:20288000816080939100809190008160809390008091C10084608093C1008091C100826050
:2028A0008093C1008091C10081608093C1008091C30081608093C3008091C000826080936C
:2028C000C0008091C20081608093C20080917A00846080937A0080917A00826080937A00B9
:2028E00080917A00816080937A0080917A00806880937A001092140410920F0410920E04BC
:202900008091D70081608093D70080EA8093D80089B5806189BD89B5826089BD09B400FE29
:20292000FDCF61E070E080E090E00E94EC048091D8008F7C80618093D8008091E000807F28
:202940008093E0008091E1008E7E8093E1008DE08093E200559A209AEEEFFFE78591949189
:202960008B3F9C4D19F481E080930D04E0E3F6E02491E1E1F6E08491882399F090E0880FDC
:20298000991FFC01E356FB4FA591B491FC01EA50FA4F859194918FB7F894EC91E22BEC93EE
:2029A0008FBF8FE694E00E94560C8FE694E00E946F138FEF9FEF909322048093210481E0E1
:2029C0000E945C031092100410921204109211048FEF90E00E94B119282F30E02F3F31056C
:2029E00009F093C081E0809310048DEF93E00E94B11990E00E94380C10911204111108C0B1
:202A000080911104811104C080911004882349F16CE271E080E090E00E94EC0481EE0E941E
:202A20009A0C64E670E080E090E00E94EC0481EE0E949A0C64E670E080E090E00E94EC0441
:202A4000112309F479C00E942D0D68EC70E080E090E00E94EC048FEF9FEF909322048093C2
:202A6000210480E00E945C0390E0E92E90E0F92E85E194E00E94AD04892B09F4D7C085E1D7
:202A800094E00E94AD04892B09F4D0C085E194E00E946B048F3F910509F0C2C085E194E08A
:202AA0000E94AD04892B09F4BBC085E194E00E946B048E3F910509F0B3C085E194E00E9461
:202AC000AD04892B09F4A4C085E194E00E946B04843509F047C081E00E94F40E8823D9F112
:202AE00068E871E085E194E00E94F20E8FEF90E00E94B1198C3D11F40E942D0D64E170E020
:202B000080E090E00E94EC0483C02E3D310521F481E08093120469CF2F36310509F465CFCC
:202B20002C3D310509F461CF875E823008F05ACF81E08093110459CF80911004882309F493
:202B400090CF6BEA74E08FE694E00E94EF0388E20E949A0C7ACF6AE871E085E194E00E94D6
:202B6000F20ECCCF843609F076C08FEF93E00E94B119812C912C54018F3F29F08EE495E0E7
:202B80000E94170E45C06401C4018F719927892B01F50E94110E4AE0C501B4010E94260E99
:202BA00069E475E03AE0831691047CF065E475E084E6881691044CF062E475E098EE891688
:202BC00093E0990614F060E475E085E194E00E94EF03C6010E94B1198F3FA9F56DE375E094
:202BE00085E194E00E94EF036BE375E085E194E00E94EF03EFEF8E1A9E0AAE0ABE0A811413
:202C0000F4E09F06A104B10409F0BDCF0E94110E64E670E080E090E00E94EC040E94E20318
:202C20006AE070E080E090E00E94EC0464E670E080E090E00E94EC04E114F10409F418CFCE
:202C40000E94000015CF682F70E090E080E04AE00E94260EC9CF8B36C1F485E194E00E94AD
:202C60006B046C016CE871E085E194E00E94F20E8C2D0E94D70E6C2D8DEF93E00E94B9191B
:202C8000C60199270E94380CC3CF843451F485E194E00E946B04682F8EEF93E00E94B91952
:202CA000B7CF883561F580E00E94F40E882309F4AFCF62EE75E085E194E00E94EF03B12C61
:202CC000A12C6FEFC5010E94B9192FEFA21AB20A3FEFA31633E0B306A1F76BEB8FEF93E067
:202CE0000E94B91964E170E080E090E00E94EC0463ED75E085E194E00E94EF03FFCE8C34C9
:202D000041F48AEA91E00E94E30E6BEB8FEF93E0C5CF883709F43BC28C36E1F481E00E94D8
:202D2000F40E882309F474CF66EC75E085E194E00E94EF0364E170E080E090E00E94EC049A
:202D40006AEB8FEF93E00E94B91981EC95E00E94170ED4CE8B3461F481E00E94F40E8823AA
:202D600009F456CF8AE895E00E94170E69EBCECF803561F581E00E94F40E8823D1F068E8C6
:202D800071E085E194E00E94F20E68EC70E080E090E00E94EC0490E080E00E948E0D8823A8
:202DA00029F083EC91E00E94E30EA8CE85EC91E0FACF6AE871E085E194E00E94F20E68ECF3
:202DC00070E080E090E00E94EC0498CE853491F481E00E94F40E882309F41ACF80E491E032
:202DE0000E948E0D60E084EA91E00E94B9198AE795E0C6CE833739F581E00E94F40E8823F1
:202E000009F406CF68E871E085E194E00E94F20E64E170E080E090E00E94EC0480E091E0FB
:202E20000E948E0D882309F4F3CE60E083E291E00E94B9198FE695E00E94170E60E971E017
:202E400080E090E05FCE823671F465E675E085E194E00E94EF038FEF93E00E94B11990E07D
:202E60000E94940ED5CE863509F068C06DE275E085E194E00E94EF0361E275E085E194E00B
:202E80000E94EF038FEF90E00E94B1190E94D00E6EE075E085E194E00E94EF038EEF93E0C3
:202EA0000E94B1190E94D00E6DEF74E085E194E00E94EF038CEF93E00E94B1190E94D00E2E
:202EC0006FEE74E085E194E00E94EF038DEF93E00E94B1190E94D00E63EE74E085E194E079
:202EE0000E94EF038FEF93E00E94B1190E94D00E6DED74E085E194E00E94EF03A12CBB2499
:202F0000B39410E0C5010E94B1198F3FA9F00E9466048FEFA81AB80A93E0A91691E0B90671
:202F200089F7112331F066ED74E085E194E00E94EF0384ED94E024CE11E0EBCF863609F070
:202F400076C081E00E94F40E882309F4D0C081E00E945C0384E090E00E94AA0E882309F4C6
:202F600057CE85E194E00E946B04182F8130F1F4B12CA12C11E01A0DC5010E94B1198111DE
:202F80000CC0A12EB12C6DE0C50101970E94B91960E0C5010E94B9192DC0EFEFAE1ABE0AC5
:202FA000F8ECAF16B10431F718ECEBCFB12CA12C882351F067EC71E085E194E00E94F20E17
:202FC000812F0E94D70E16C011E01A0DC5010E94B1198D3031F460E0E12FE150FF0BCF015D
:202FE000D9CF882339F02FEFA21AB20A38ECA316B10451F785E194E00E946B04182F6CED5A
:20300000813019F0811109C06EED8FEF90E00E94B91980E00E945C03FBCD67EC71E085E1AB
:2030200094E00E94F20E812F0E94D70EF2CF833409F062C081E00E94F40E882309F457C0EC
:2030400084E090E00E94AA0E882309F4E1CD85E194E00E946B04182F8D7F6DEE71E08C3D39
:2030600071F4612F8FEF90E00E94B91985E194E00E946B04182F853650F065E072E085E1CF
:2030800094E00E94F20E812F0E94D70EC1CD682F8EEF93E00E94B91985E194E00E946B046F
:2030A000182F853618F064E272E0E9CF682F8CEF93E00E94B91985E194E00E946B045C0175
:2030C000FAE1F81740F466E472E085E194E00E94F20E8A2DD9CF682F8DEF93E00E94B91961
:2030E000C50199270E94380C80EC94E049CD82EE91E00E94E30E8CCD833559F481E00E9499
:20310000F40E882319F085E692E0F3CF8BE692E0F0CF8737E1F59E012F5F3F4F49016901B5
:2031200010E081E090E00E94AA0E811108C0011135C084E792E00E94E30E00E069CD85E127
:2031400094E00E946B04F60181936F011F5F143611F08111E6CF1150B12CA12C0A2DC50157
:203160000E94B1198823B1F08A30A1F08D3091F0F40191914F018913DCCFFFEFAF1ABF0AE0
:2031800024E6A216B10451F71013D3CF07C083E892E0AFCF1013CDCF143058F280E091E06B
:2031A0000E94B1190E94660481E091E00E94B1190E94660482E091E00E94B1190E94660402
:2031C0006EEB74E085E194E00E94EF0303E011E0C8010E94B1190E9466040F5F1F4F0332AE
:2031E00031E01307A9F70E94110E01E011CDEE0FFF1F0590F491E02D0994692796276927C8
:2032000078278727782708958F929F92AF92BF92CF92DF92EF92FF92CF93DF93EC016881B3
:2032200079818A819B81611571058105910521F464E279ED8BE597E02DE133EF41E050E03C
:203240000E94CB1949015A019B01AC01A7EAB1E40E94EA196B017C01ACEEB4EFA5019401CE
:203260000E94F819C60ED71EE81EF91EF7FE06C081E0C81AD108E10880E8F80AC882D982E6
:20328000EA82FB82C701B6019F77DF91CF91FF90EF90DF90CF90BF90AF909F908F9008958B
:2032A0008F929F92AF92BF92CF92DF92EF92FF9260911301709114018091150190911601CC
:2032C000611571058105910521F464E279ED8BE597E02DE133EF41E050E00E94CB194901ED
:2032E0005A019B01AC01A7EAB1E40E94EA196B017C01ACEEB4EFA50194010E94F819C60E77
:20330000D71EE81EF91EF7FE06C081E0C81AD108E10880E8F80AC0921301D0921401E09222
:203320001501F0921601C701B6019F77FF90EF90DF90CF90BF90AF909F908F900895609301
:2033400013017093140180931501909316010895FB01DC0102C005900D9241505040D8F782
:203360000895F999FECF92BD81BDF89A992780B50895262FF999FECF92BD81BDF89A019735
:2033800000B4021639F01FBA20BD0FB6F894FA9AF99A0FBE0895052E97FB1EF400940E9493
:2033A000E21957FD07D00E94FD1907FC03D04EF40C94E21950954095309521953F4F4F4F1B
:2033C0005F4F089590958095709561957F4F8F4F9F4F08950E941F1AA59F900DB49F900D8A
:2033E000A49F800D911D11240895B7FF0C94EA190E94EA19821B930B0895A1E21A2EAA1B17
:20340000BB1BFD010DC0AA1FBB1FEE1FFF1FA217B307E407F50720F0A21BB30BE40BF50B69
:20342000661F771F881F991F1A9469F760957095809590959B01AC01BD01CF010895A29F1B
:20344000B001B39FC001A39F700D811D1124911DB29F700D811D1124911D0895F894FFCF22
:2034600091039503720389038D0377037703770398039E03A203A603AC037703B003FFFFBD
:20348000FFFF00E100000000000000C18081000000010000006834636B45724E6F346834DC
:2034A00039333832373234303438333832416E796B3379430000000050048A0BE30AED0318
:2034C000AD046B04890400000000E00B560A390AAB096513F6FF0000000D13042A0D290DFF
:2034E000560C6F13670C00000000790913042A0D290D0D0A003031323334353637383961EA
:20350000626364656600310030004368616E6765206B6579626F617264206C61796F7574E1
:2035200020746F2069643A004C6F636B696E6720626F6F746C6F616465722028313837293E
:203540000053005400636F707970726F7465637420696E76616C69642076616C75653D0087
:20356000496E76616C6964204352006B62645F636F6E6620696E76616C69642076616C75BA
:20358000653D006B62645F64656C617920737461727420696E76616C69642076616C756558
:2035A0003D006B62645F64656C6179206B6579707265737320696E76616C69642076616C2F
:2035C00075653D006B6579626F617264206C61796F757420696E76616C69642076616C75E6
:2035E000653D004352206F6B004352204641494C210057726F6E672070617373776F726408
:2036000000756E6B6E6F776E20636D640000FFFFFFFFFFFFFFFFFFFFFFFFFFFFFFFFFFFF58
:20362000FFFFFFFFFFFFFFFFFFFFFFFFFFFFFFFFFFFFFFFFFFFFFFFFFFFFFFFFFFFFFFFFAA
:20364000FFFFFFFFFFFFFFFFFFFFFFFFFFFFFFFFFFFFFFFFFFFFFFFFFFFFFFFFFFFFFFFF8A
:20366000FFFFFFFFFFFFFFFFFFFFFFFFFFFFFFFFFFFFFFFFFFFFFFFFFFFFFFFFFFFFFFFF6A
:20368000FFFFFFFFFFFFFFFFFFFFFFFFFFFFFFFFFFFFFFFFFFFFFFFFFFFFFFFFFFFFFFFF4A
:2070000055C000006EC000006CC000006AC0000068C0000066C0000064C0000062C0000043
:2070200060C000005EC00000FBC400005AC0000058C0000056C0000054C0000052C00000E5
:2070400050C00000F3C000004CC000004AC0000048C0000046C0000044C0000042C0000043
:2070600040C000003EC000003CC000003AC0000038C0000036C0000034C0000032C0000048
:2070800030C000002EC000002CC000002AC0000028C0000026C0000024C0000022C00000A8
:2070A00020C000001EC000001CC0000011241FBECFEFDAE0DEBFCDBF11E0A0E0B1E0E0E0C1
:2070C000FFE702C005900D92A43AB107D9F721E0A4EAB1E001C01D92AA3BB207E1F76DD328
:2070E00003C78ECF84E08093E9008091E80085FF03C08091F1000CC08091E8008B778093ED
:20710000E8008091E80082FDF0CF8EB38111F9CF089593E09093E9009091E80095FF0AC032
:207120008093F1005D9884E690E09093A9018093A80108959091E8009E779093E80090910C
:20714000E80090FDEDCF9EB39111F9CF0895F89410926F0010928100109285001092840099
:2071600081E085BF15BE47985D9A289A0C94000008952091AE013091AF012F5F3F4F309312
:20718000AF012093AE01832F37FF02C08EEF831B880F821710F447980895479A089543EFB8
:2071A00051E030E020E003C0FFEF2F5F3F4F28173907D4F341505109A1F70895479A88EE04
:2071C00093E0EDDF479880ED97E0E9CF84B7877F84BF0FB6F894A895809160008861809376
:2071E0006000109260000FBE90E880E00FB6F89490936100809361000FBE81E085BF82E06B
:2072000085BF3F9A209A559AE1E6F0E09083108247985D9A289A109289009AEF9093880075
:2072200080936F0083E08093810008951F921FB61F9211242F938F939F93EF93FF93109200
:207240008500109284008091A8019091A901009741F001979093A9018093A801892B09F464
:207260005D9A8091A6019091A701009741F001979093A7018093A601892B09F4289AF0E06E
:20728000E0E085919491019649F08091A4019091A50101969093A5018093A401FF91EF917E
:2072A0009F918F912F911F901FBE1F90189542E061EC82E032D342E161E883E02ED342E10D
:2072C00060E884E02AC38091B201982F9F779132B9F49091B3019032A1F0913289F4813AE1
:2072E00079F48091E800877F8093E80067E070E083E091E049D48091E8008B778093E800A9
:2073000008958132E9F78091E800877F8093E80067E070E083E091E08FD48091E8008E7777
:20732000EDCF6F927F928F929F92AF92BF92CF92DF92EF92FF920F931F93CF93DF9384E02B
:207340008093E9008091E80082FF28C2289884E690E09093A7018093A601C4DEC82F85345C
:2073600051F58CE89CE39093A5018093A40107B600FCFDCFF999FECF81E180935700E89526
:207380008DE0C7DE83E08093E9009091E8008091E8008E778093E80095FFF3C18091E80039
:2073A00080FFF9C184E08093E9008091E8008B778093E800F3C1843511F494DEE1CF8C34EA
:2073C000F9F28035E9F2843721F484E4A2DE80E0D8CF89E5C136A9F2C134D1F483DEC82F61
:2073E00081DE2C2F30E0322F2227330F90E0880F991F822B932B092E000CAA0BBB0B8093DC
:20740000AA019093AB01A093AC01B093AD01B8CF83E5C03709F4B5CFC33549F4CCE9D1E01F
:20742000899177DE21E0C33AD207D1F7ABCFC63521F481E36EDE80E3A4CFC33731F487E8A0
:2074400068DE85E966DE8EE19CCFC536B9F4F0E0E0E083E095E080935700E89507B600FCAA
:20746000FDCF90935700E89507B600FCFDCFE058FF4FE11520E7F20771F782CF89E0E1E065
:20748000F0E0C23779F089E0F0E0E0E0C63451F089E0E3E0F0E0CE3429F0C13539F489E0E3
:2074A000E2E0F0E08093570084916BCFC23631F489E52FDE80E02DDE80E863CFC23419F0E5
:2074C000C73609F0CEC01092A5011092A4010ADE182F08DE082F06DED82F8BEB8D0F82309E
:2074E00010F08FE34ECF10926F00C73609F045C081E180935700E895C0E0BB24B394015091
:20750000110920F482E080936F003CCFC090AA01D090AB01E090AC01F090AD01D634B9F445
:20752000EC2FF0E0EC29FD298491F3DDCC2369F082E0C80ED11CE11CF11CC092AA01D0926A
:20754000AB01E092AC01F092AD01CB25D8CFD701C601B695A79597958795B0D4DADD92E07E
:20756000C90ED11CE11CF11CC092AA01D092AB01E092AC01F092AD01C2CF8090AA01909077
:20758000AB01A090AC01B090AD01712CD63459F483E0F40180935700E89587B7F82FF1707B
:2075A0007F2E80FDFACFC0E06624639424C0D63409F034C0CC2379F1C090AA01D090AB017C
:2075C000E090AC01F090AD018DDD982F872DF6010C0160925700E8951124F2E0CF0ED11CE0
:2075E000E11CF11CC092AA01D092AB01E092AC01F092AD01C62501501109C8F6D63441F4D4
:2076000085E0F40180935700E89507B600FCFDCF8DE07FDD77CF66DD782EECCF63DD682F1A
:207620008091AA019091AB01A091AC01B091AD01B695A7959795879549D48091AA0190912B
:20764000AB01A091AC01B091AD010296A11DB11D8093AA019093AB01A093AC01B093AD012F
:20766000CACFC33471F4C091AA01D091AB013ADD90E021E0FE010C0120935700E8951124BC
:207680007FCEC33601F5C090AA01D090AB01E090AC01F090AD0126DDF601E16090E021E0B0
:2076A0000C0120935700E8951124F2E0CF0ED11CE11CF11CC092AA01D092AB01E092AC0131
:2076C000F092AD015DCECD3661F4E091AA01F091AB0185E080935700E89507B600FCFDCFDD
:2076E0004FCEC23551F4E091AA01F091AB01C591D4918D2F0EDD8C2F44CEC434D9F4F2DC26
:20770000682F8091AA019091AB01A091AC01B091AD01B695A79597958795D8D38091AA0146
:207720009091AB01A091AC01B091AD010296A11DB11D65CEC436F1F4C090AA01D090AB0172
:20774000E090AC01F090AD01D701C601B695A79597958795B3D3DDDC22E0C20ED11CE11C75
:20776000F11CC092AA01D092AB01E092AC01F092AD0108CECB3109F405CEB3CE8EB3882393
:2077800069F08091E80080FFF9CF8091E8008E778093E80003CE8EB3811100CEDF91CF9115
:2077A0001F910F91FF90EF90DF90CF90BF90AF909F908F907F906F9008952091000830919C
:2077C0000108109201081092000884B714BE0FB6F894A89590916000986190936000109211
:2077E00060000FBE81FD0AC080FF22C0F0E0E0E0459154914F3F5F4FD9F0A9DCE7DC8FEF9D
:2078000093E05CD38B3B21F5A2DCF2D078941092A5011092A4018091020181113FC0809159
:20782000E00081608093E00092DC90E080E0089583FFE4CF8091000190910101821793071C
:20784000E9F2F0E0E0E0859194910196B9F2D5CF8A3B29F46BEB8FEF93E038D3D6CF893BFF
:20786000A1F6ACDC6BEB8FEF93E030D389E0E1E0F0E08093570094919F3F29F080935700B5
:2078800084918F3349F49ADC89E093E0E1E0F0E0092E80935700E89591DCB7CF42DDF7D2F8
:2078A0008091A4019091A50181389E4310F0109202015FDCB0CF292F30E022303105C9F0A9
:2078C0002330310541F021303105C1F090E080E030E020E00AC08823B1F08130C9F08230A4
:2078E000A9F788E190E02AE031E0FA013183208308958EE390E02CE431E0F7CF82E190E06A
:207900002AE831E0F2CF84E090E028E431E0EDCF82E290E024E231E0E8CF8093E900EBEE5F
:20792000F0E0808181608083EDEEF0E010826093EC0040838091EE00881F8827881F08951A
:207940008091B20187FF11C08091E80082FF06C08091E8008B778093E80003C08EB3811140
:20796000F3CF08958EB38823E1F38091E80080FFF9CF8091E8008E77EECF0F931F93CF9337
:20798000DF9341D048D0C8EDD0E088818F77888388818068888388818F7D888319BC1EBA04
:2079A0001092B00100EE10E0F80180818B7F808388818160888342E060E080E0AEDFE1EE7C
:2079C000F0E080818E7F8083E2EEF0E0808181608083808188608083F80180818E7F80834B
:2079E000888180618883DF91CF911F910F910895E7EDF0E08081816080838AE482BF81E03C
:207A00008093B101BACFE8EDF0E080818E7F80831092E20008951092DA001092E1000895A5
:207A20001F920F920FB60F9211242F933F934F935F936F937F938F939F93AF93BF93EF9373
:207A4000FF938091DA0080FF17C08091D80080FF13C08091DA008E7F8093DA008091D90049
:207A600080FF88C080E189BD82E189BD09B400FEFDCF81E08EBB0AD28091E10080FF17C09A
:207A80008091E20080FF13C08091E2008E7F8093E2008091E20080618093E2008091D800FA
:207AA00080628093D80019BC85E08EBBEFD18091E10084FF29C08091E20084FF25C080E19C
:207AC00089BD82E189BD89B5982F917080FFFBCF8091D8008F7D8093D8008091E1008F7E89
:207AE0008093E1008091E2008F7E8093E2008091E20081608093E2008091B001882309F46A
:207B00003DC084E08EBBC2D18091E10083FF21C08091E20083FF1DC08091E100877F809376
:207B2000E10082E08EBB1092B0018091E1008E7F8093E1008091E2008E7F8093E20080916D
:207B4000E20080618093E20042E060E080E0E5DE9DD1FF91EF91BF91AF919F918F917F917A
:207B60006F915F914F913F912F910F900FBE0F901F90189519BC1EBA89D17ECF8091E300F6
:207B800087FD94E09EBBBFCFFC018091B8019091B90186179707A0F06115710529F490916F
:207BA000E8009E779093E80090E06115710551F4911108C08091E80082FF33C080E0089548
:207BC000BC01F2CF8EB38823A9F1853079F18091E80083FD2DC08091E80082FDEBCF8091D9
:207BE000E80080FFE2CF8091F3002091F200382F6115710519F02830310558F091E02830CB
:207C0000310509F090E02091E8002E772093E800CCCF81918093F100615071092F5F3F4FF4
:207C2000E7CF8EB3882331F0853021F683E0089581E0089582E00895FC016115710529F4B2
:207C40009091E8009B779093E8006115710531F48091E80080FF1DC080E008958EB38823AF
:207C600009F18530D9F08091E80083FD19C08091E80082FFEACF8091F3002091F200382FF9
:207C8000232BF1F28091F10081936150710999F7D7CF8EB3882331F08530D1F683E00895B3
:207CA00081E0089582E008950F931F93CF93DF9300D0CDB7DEB782EB91E02091F100FC0139
:207CC0002193CF01F1E08A3B9F07B9F7FCDA8091E80083FF29C08091B2019091B3019A3097
:207CE00018F5E92FF0E0EA58F04CE2C08238E1F48091B60187708093E9008091EB0085FBA9
:207D0000882780F91092E9009091E800977F9093E8008093F1001092F1008091E8008E77F1
:207D2000B1C0823009F492C08091E80083FF0AC08091EB0080628093EB008091E800877FB1
:207D40008093E8000F900F90DF91CF911F910F9108959091EB0090619093EB0021E030E011
:207D600001C0220F8A95EAF72093EA001092EA008091EB0088607FC08111D6CF1091B40138
:207D80001F770FB7F8948091E800877F8093E800D7DD8091E80080FFFCCF8091E30080781E
:207DA000812B8093E30080688093E30082E0111183E08EBB0FBFB8CF8058823008F0B4CFB9
:207DC000AE014F5F5F4F6091B6018091B4019091B50171DDBC01892B09F4A6CF9091E80019
:207DE000977F9093E80089819A81CEDE8091E8008B778093E80098CF803809F095CF80910E
:207E0000E800877F8093E8008091B0018093F10084CF811189CF9091B401923008F084CF93
:207E20008091E800877F8093E8009093B00188DD8091B001882311F084E005C08091E30084
:207E400087FDFACF81E08EBB32DA6ECF8091B401811113C08091B601877009F465CF8093B4
:207E6000E9002091EB0020FF08C0933009F071CF8091EB0080628093EB001092E900809122
:207E8000E800877F8093E8005BDD4ECF0895CF938EB3882359F0C091E900C7701092E90074
:207EA0008091E80083FD00DFC093E900CF910895EE0FFF1F0590F491E02D0994F999FECFF3
:207EC00092BD81BDF89A992780B50895262FF999FECF1FBA92BD81BD20BD0FB6F894FA9A15
:207EE000F99A0FBE01960895F894FFCF763E913E943E913E943EBC3EDC3E943EFC3E093F36
:207F000077770100000000000008180341006E0079006B0065007900200062007600620084
:207F200061000000220341006E0079004B006500790020002000200020002000200020008A
:207F400020002000200000000403090409023E000201008032090400000102020100052473
:207F6000001001042402040524060001070582030800FF09040100020A00000007050402CE
:207F800010000107058302100001120110010200000841233600010002010001414E594B2E
:047FA000455920001F
:00000001FF
