:200000000C942C010C9454010C9454010C9454010C9454010C9454010C9454010C94540160
:200020000C9454010C9454010C9472060C94DF060C9454010C9454010C9454010C94540165
:200040000C9454010C9454010C9454010C9454010C9454010C9454010C9454010C942A061D
:200060000C9454010C9454010C9454010C9454010C9454010C9454010C9454010C945401D8
:200080000C9454010C9454010C9454010C9454010C9454010C9454010C9454010C945401B8
:2000A0000C9454010C9454010C945401080B0002020201000904000001020200000524000C
:2000C000100105240101010424020605240600010705810310004009040100020A00000089
:2000E00007050202400000070583024000000403090412010002EF02014041233680000169
:2001000001020301416E794B6579206276626100416E794B65790005010906A1010507199F
:20012000E029E715002501750195088102050C95017508150026FF00190029FF81000508D1
:2001400019012908950875019102050795067508150026E700190029E78100C000000000FE
:20016000240027002A002D00300000000000000000002A2B28000000000000000000000030
:20018000000000000000000000002C9EB4A0A1A2A434A6A7A5AE362D3738271E1F202122ED
:2001A00023242526B333B62EB7B89F8485868788898A8B8C8D8E8F9091929394959697982F
:2001C000999A9B9C9D2F3130A3AD350405060708090A0B0C0D0E0F101112131415161718DD
:2001E000191A1B1C1DAFB1B0B50000000000250028002B002E0031000404040404030405BC
:2002000002020202040302020202060606060606040402020204040408020110408040105E
:20022000204080408008020401804020100201108010204040200000000200090F0000039F
:200240000401000C000000000000000000000000000000000000100911241FBECFEFDAE0EA
:20026000DEBFCDBF11E0A0E0B1E0EAEBF5E102C005900D92A635B107D9F721E0A6E5B1E032
:2002800001C01D92A53EB207E1F711E0CCE2D1E004C02197FE010E94B40ACB32D107C9F7BA
:2002A0000E94A1090C94CC0A0C940000E3E4F2E02491E4E2F2E03491E5E0F2E094919923B9
:2002C00009F1222371F021502F3058F4E22FF0E0E253F54F0C94B40A209180002F77209320
:2002E0008000E92FF0E0EE0FFF1FE651FE4FA591B4919FB7F894EC91811132C030953E2373
:200300003C939FBF0895209180002F7DE8CF20918000277FE4CF24B52F7724BDE2CF24B50B
:200320002F7DFBCF209190002F7720939000D9CF209190002F7DF9CF20919000277FF5CF15
:200340002091C0002F772093C000CBCF2091C0002F7DF9CF2091C200277F2093C200C1CF76
:200360003E2BCECFFC0180917601882311F13FB7F89482E08093E9002091F200822F90E0A1
:200380001816190614F481E090E0882339F0289844E6409375014091F1004083222339F03D
:2003A0002091F200211103C02BE62093E8003FBF08958FEF9FEF0895CF92DF92EF92FF92D1
:2003C0000F931F93CF93DF937C016A0110E000E00C151D0581F0EB01D701ED91FC91019029
:2003E000F081E02D6991C7010995892B21F00F5F1F4FBE01EDCFC801DF91CF911F910F911A
:20040000FF90EF90DF90CF9008958091680181110DC082E08093640184E080936501109231
:2004200067011092660181E08093680184E691E00895CF93DF930F92CDB7DEB76983DC019F
:20044000ED91FC910280F381E02D41E050E0BE016F5F7F4F09950F90DF91CF91089583E0D5
:200460008093E9008091F200882319F08AE38093E8000895CF93DF930F92CDB7DEB7FC0139
:200480008485958597FD08C02FEF3FEF358724870F90DF91CF910895CE0101960E94B20163
:2004A000019719F4898190E0F3CF8FEF9FEFF0CF0F931F93CF93DF930F92CDB7DEB78C0121
:2004C000FC018485958597FF0BC0CE0101960E94B201019771F4898190E0F8019587848749
:2004E000F801848595850F90DF91CF911F910F9108958FEF9FEFF1CFFC018485958597FD04
:200500000BC09FB7F89482E08093E9008091F2009FBF90E0019608959FB7F89482E0809374
:20052000E9008091F2009FBF90E008953FB7F8948091600190916101A0916201B0916301B4
:2005400026B5A89B05C02F3F19F00196A11DB11D3FBFBA2FA92F982F8827BC01CD01620FED
:20056000711D811D911D42E0660F771F881F991F4A95D1F708958F929F92AF92BF92CF928C
:20058000DF92EF92FF924B015C010E9496026B017C010E9496026C197D098E099F09683EE2
:2005A000734081059105A8F321E0821A9108A108B10888EEC80E83E0D81EE11CF11C8114F5
:2005C0009104A104B10429F7FF90EF90DF90CF90BF90AF909F908F900895FC0182818F5BCD
:2005E000FB01808381E00895089590E080E00895409158015091590120915601309157016E
:2006000042175307B4F49091E8009570E1F39091E80092FD19C08093F1008091580190919D
:20062000590101968F739927892B19F48EEF8093E8008091580190915901019690935901D5
:200640008093580181E0089580E00895EF92FF920F931F93CF93DF93F82E192FE62E042F44
:2006600081E0860F880F0E94F80283E00E94F802CF2DD12FEC0EFD2EF11CCE15DF05B9F0B4
:2006800007FF13C0FE0184910E94F802182F80E00E94F802812321968111EFCFDF91CF9113
:2006A0001F910F91FF90EF9008958881EDCF81E0F5CFDF92EF92FF920F931F93CF93DF93AA
:2006C000D82E8A01EB017B01E40EF51ECE15DF0559F0D7FE12C0FE0184910E94F8022196FE
:2006E0008111F4CF0FEF1FEFC801DF91CF911F910F91FF90EF90DF9008958881EECFFB01D4
:2007000020812138B1F42381223299F4DC0112964C911297248135814217130651F421E097
:2007200057962C9345E450E067E171E080E80C94590390E080E00895CF93DF93CDB7DEB75D
:2007400069970FB6F894DEBF0FBECDBFFC01DB019C919F5F9C939E012D5F3F4F81E1D9012A
:200760001D928A95E9F729E0298384E08A8391E09D8383E08E839F8398872A8721E22B87F9
:200780009C879D879F8722E2288B25E4298B27E02B8B25E02C8B8E8B20E430E0388F2F8B51
:2007A000998F82818B83838180688D8B49E150E0BE016F5F7F4F80E00E94590369960FB625
:2007C000F894DEBF0FBECDBFDF91CF9108950F931F93CF93DF930F92CDB7DEB782E08983DA
:2007E00042E450E06CEA70E080E80E9459030E940502DC0112960D911C910115110589F079
:20080000D801ED91FC910280F381E02DBE016F5F7F4FC801099597FD04C0F80100851185C3
:20082000ECCF89810F90DF91CF911F910F9108952FB7F89487708093E9009091E800892F71
:20084000807295FF04C09091F20080E4891B2FBF089583E00E94180490E008957F928F9248
:200860009F92AF92BF92CF92DF92EF92FF920F931F93CF93DF93C82E8B017A018091760124
:20088000811110C08FEF9FEFDF91CF911F910F91FF90EF90DF90CF90BF90AF909F908F9012
:2008A0007F9008958091710180FF05C08091E00082608093E000CE2DDF2DD12C8AEFB82E9C
:2008C0008C2D8770982E8C2D8072882E8C2D8074782E9AE3A92E209719F4DD2009F45AC0C2
:2008E0008C2D0E94180481110AC0BA94BB2051F261E070E080E090E00E94BB02ECCF8C179B
:200900001D0611F00CF08C2F9FB7F8949092E9002091E80025FD02C09FBFDDCF282F30E021
:20092000C21BD30B882029F0815060F01092F100FBCF502F412FC7FE10C0F801815040F43B
:20094000020F131FDD2099F0A092E800D12CE4CF44914093F1003196F1CF815088F3E52F84
:20096000F42F41914093F1005E2F4F2FF6CF8091E80085FD07C0A092E800DD24D394209773
:2009800059F2E4CF209741F6772009F4C5CFA092E800C2CF5D9884E680935A01C70174CFC0
:2009A000CF93DF93EC0180910B01882331F083E00E942E041816190634F081E090E09B83F6
:2009C0008A8380E090E0DF91CF910895615030F0FC018091F1008193CF01F8CF289884E628
:2009E000809375010895AF92BF92DF92EF92FF920F931F93CF93DF935C018B01EB019BEF35
:200A0000D92E2097C1F07E01C134D1051CF080E4E82EF12C8091E80082FFFCCFC8018C1BC5
:200A20009D0B6E2D8A0D9B1D0E94E604D092E800CE19DF09E6CFC801DF91CF911F910F91E1
:200A4000FF90EF90DF90BF90AF900895CF93DF93EC01FB012A81848195812817190609F014
:200A60004BC081819081913A79F4813029F0833039F48F898093F10081E0DF91CF9108958C
:200A80008230D1F5888DF6CF9132B1F58B3019F482818F8BF1CF8A3019F48281888FECCF5A
:200AA000893051F5668177818381833079F48C8D9D8D6817790701F58A8D9B8D0E94F30424
:200AC0008C8D9D8D90689D8F8C8FD6CF823051F46130710589F461E070E0CE0149960E9493
:200AE000F304CACF813041F46830710529F468E070E0CE010E96F3CF80E0BFCFFC013496D3
:200B00009C01245F3F4F90E080E0419141110196DF0111971C92E217F307B9F70895FC0129
:200B200090E2960F9830F8F0DF01169630E020E08D91442351F0681711F081110CC0E20FBD
:200B4000F31F668381E090E00895681304C0E20FF31F1682F7CF2F5F3F4F2630310541F7AC
:200B600090E080E00895848161E070E001C0660F9A95EAF7442319F0682B6483E3CF60959B
:200B80006823FBCFEF92FF920F931F93CF93DF937C01D42F67FF11C081E090E0D7011396BD
:200BA0009C938E93129710E000E0C801DF91CF911F910F91FF90EF900895E0917301F09172
:200BC0007401E60FF11DC4916C2F6F77DC01ED91FC910484F585E02D09958C01C7FFE5CF2B
:200BE000892B11F4D111E1CFD701ED91FC910484F585E02D4D2F61EEC7010995082B192B10
:200C0000D4CFFF920F931F93CF93DF93EC01F62E41E00E94C2058C01892BA9F0E881F98120
:200C20000284F385E02DCE01099540E06F2DCE010E94C205892B39F0E881F9810284F3858A
:200C4000E02DCE010995C801DF91CF911F910F91FF9008951F921FB61F9211242F933F9305
:200C60008F939F93AF93BF9380915C0190915D01A0915E01B0915F0130915B0123E0230F1C
:200C80002D3750F50196A11DB11D20935B0180935C0190935D01A0935E01B0935F01809142
:200CA000600190916101A0916201B09163010196A11DB11D8093600190936101A093620165
:200CC000B0936301BF91AF919F918F913F912F911F901FBE1F90189526E8230F0296A11D7F
:200CE000B11DD3CF1F921FB61F9211248F939F938091E1009091E100937F9093E10083FF38
:200D00000FC01092E90091E09093EB001092EC0092E39093ED001092760198E09093F00043
:200D200082FF22C093E09093E9009091F200992319F09AE39093E80090915A01992341F008
:200D400090915A01915090935A01911101C05D9A90917501992341F090917501915090933F
:200D60007501911101C0289A84FF17C08091E2008E7E81608093E2008091E1008F7E809397
:200D8000E100809171018E7E8061809371019F918F911F901FBE1F90189580FFF8CF8091EE
:200DA000E2008E7E80618093E2008091E1008E7E8093E100809171018E7E8160E6CF1F92A7
:200DC0000F920FB60F921124CF92DF92EF92FF920F931F932F933F934F935F936F937F9323
:200DE0008F939F93AF93BF93EF93FF93CF93DF93CDB7DEB76C97DEBFCDBF1092E900809142
:200E0000E80083FF21C068E0CE0145960E94E60482EF8093E8009D8997FF35C08091E800F3
:200E200080FFFCCF892F807609F03BC12E89211131C0903861F5809172018093F1001092A3
:200E4000F1008EEF8093E8006C960FB6F894DEBF0FBECDBFDF91CF91FF91EF91BF91AF9170
:200E60009F918F917F916F915F914F913F912F911F910F91FF90EF90DF90CF900F900FBE1A
:200E80000F901F9018958EEF8093E800CBCF1092F100D5CF4F89588D213059F49111D1CF71
:200EA0004130510571F6809172018D7F80937201C8CF233049F49111C4CF4130510509F6CC
:200EC000809172018260F2CF8F89253041F49091E80090FFFCCF80688093E300B2CF188DE2
:200EE000263009F0A7C0EB8CFC8C1092E9001092590110925801123071F510925701109277
:200F000056010E94E7031F8299E099831A8391E09E8390EA98879AEF99872091580130917C
:200F20005901275F3F4F3C832B838D831092E9001092590110925801F0925701E0925601A1
:200F400049E050E0BE016F5F7F4F80E00E9459030E94E70376CFF0925701E09256010E9469
:200F60000502DC011296ED90FC90E114F10409F43DC1D701ED91FC910480F581E02DBE014E
:200F80006B5E7F4FC7010995009709F02AC1F701E084F184EACF133071F48F89882309F4E7
:200FA00040C0823061F440E866E080E191E00E942603811146CF81E28093EB0045CF813052
:200FC00029F440E86BE084E091E0F1CF833099F70E940502DC011296ED90FC908E010F5F75
:200FE0001F4F6801E114F10479F0D701ED91FC910680F781E02DB801C7010995080F111D75
:20100000F701E084F184EECFD8011C92F60101900020E9F73197BF016C197D0940E0C601B9
:20102000C6CF6EEE70E0FB01449150E080E80E94590307CF273009F4BECF283021F481E083
:201040008093F100FECE293009F0FBCE937001F5EDE0F1E081E031E096E32191211109C076
:201060008EE78093EA001092EA008F8980937601E8CE8093E9003093EB00DF0111972C912B
:201080002093EC009093ED008F5F873031F7E8CF2B8D3C8D232B09F08ECF612F90E00E9456
:2010A000BA0A8B8D9C8D1092E90010925901109258019093570180935601898D811177C0E5
:2010C0008E899D89913A49F4813209F074CF47E050E064E071E080E0AACF913209F06BCF21
:2010E000833269F48F89988DB0E0A0E08093000190930101A0930201B0930301A2CE8032B9
:2011000009F07AC067E070E084E091E00E94F30480917001EEEFFAE0811102C0E0E0F8E072
:201120008091040190910501A0910601B0910701803B9440A105B105B9F480910B0180FDBF
:2011400013C0EE3F8AE0F80721F587E797E79183808388E19BE00FB6F894A8958093600028
:201160000FBE909360006DCE0FB6F894A89580916000886180936000109260000FBEA8957D
:20118000EE3FAAE0FA0761F41092FF0A1092FE0A58CE808191819093FF0A8093FE0AD5CFC9
:2011A0008091FE0A9091FF0A918380834ACE0E940502FC01028113810115110509F4FBCE0E
:2011C000D801ED91FC910190F081E02DBE016B5E7F4FC8010995811134CEF80100851185B7
:2011E000EBCF181619060CF42CCEE5CE113009F0D2CE62EF70E017CF823209F022CE8F8925
:2012000080930B0185CFBC01625F7F4FFC01838148E050E080640C942E040A970C940309B3
:20122000CF93DF9310927A011092790188EE93E0A0E0B0E080937B0190937C01A0937D01C8
:20124000B0937E0187E191E090937801809377018FEF9FEF909384018093830181E080930D
:20126000CB018093CC012DED31E03093CE012093CD011092D0011092CF011092D401109286
:20128000D30129E231E03093C8012093C70127E331E03093D2012093D1018093DE0180931C
:2012A000DF011092E0011092E2011092E1011092E4011092E30181EC8093DD010E940502AE
:2012C000FC0181819091CB01482F490F5527551F483051059CF5A281B381109709F527ECF5
:2012E00031E03383228320812093C9018093CA018091CC01820F80832091CD01A22FB09183
:20130000CE018A2F821B8917C8F481813D91C82FD0E0C45FDE4F38838F5F8183F2CFD9013D
:2013200018962D913C91199721153105C1F727EC31E019963C932E931897D5CFDF91CF911A
:201340000895789484B5826084BD84B5816084BD85B5826085BD85B5816085BD80916E00F3
:20136000816080936E001092810080918100826080938100809181008160809381008091C8
:20138000800081608093800080919100826080939100809191008160809391008091900069
:2013A0008160809390008091C10084608093C1008091C10082608093C1008091C1008160E4
:2013C0008093C1008091C30081608093C3008091C00082608093C0008091C2008160809361
:2013E000C20080917A00846080937A0080917A00826080937A0080917A00816080937A003C
:2014000080917A00806880937A001092760110927201109271018091D70081608093D700D7
:2014200080EA8093D80089B5806189BD89B5826089BD09B400FEFDCF61E070E080E090E0A4
:201440000E94BB028091D8008F7C80618093D8008091E000807F8093E0008091E1008E7E8C
:201460008093E1008DE08093E200559A209AEEEFFFE7859194918B3F9C4D19F481E080933B
:201480007001E4E2F2E02491E5E0F2E08491882399F090E0880F991FFC01E45AFE4FA59131
:2014A000B491FC01E651FE4F859194918FB7F894EC91E22BEC938FBF81ED91E00E947E05FE
:2014C00081ED91E00E940D098FEF9FEF90938401809383018AE691E090937401809373012A
:2014E00081E00E94560160E273E080E090E00E94BB024FE050E065E471E081ED91E00E9454
:20150000DC016DE081ED91E00E94010680E00E94560160E971E080E090E00E94BB0281E096
:201520000E94560160E273E080E090E00E94BB0280E00E945601C0E0D0E081E00E945601EB
:2015400060E971E080E090E00E94BB0280E00E94560160E971E080E090E00E94BB022097E9
:2015600061F30E940000E9CFEE0FFF1F0590F491E02D0994262FF999FECF92BD81BDF89A0B
:20158000019700B4021639F01FBA20BD0FB6F894FA9AF99A0FBE0895F894FFCF8B018F01B0
:2015A0006C0183018701710171017101920198019C01A001A6017101AA01FFFFFFFF00E151
:2015C00000000000000000C18081000000000000001902D00429042F027C023A02580200E8
:2015E00000000026059C037F03ED020309F6FF00000106DC01F502F4027E050D098F05773A
:2016000077772E616E796B65792E73686F700000FFFFFFFFFFFFFFFFFFFFFFFFFFFFFFFF45
:20162000FFFFFFFFFFFFFFFFFFFFFFFFFFFFFFFFFFFFFFFFFFFFFFFFFFFFFFFFFFFFFFFFCA
:20164000FFFFFFFFFFFFFFFFFFFFFFFFFFFFFFFFFFFFFFFFFFFFFFFFFFFFFFFFFFFFFFFFAA
:20166000FFFFFFFFFFFFFFFFFFFFFFFFFFFFFFFFFFFFFFFFFFFFFFFFFFFFFFFFFFFFFFFF8A
:20168000FFFFFFFFFFFFFFFFFFFFFFFFFFFFFFFFFFFFFFFFFFFFFFFFFFFFFFFFFFFFFFFF6A
:2070000055C000006EC000006CC000006AC0000068C0000066C0000064C0000062C0000043
:2070200060C000005EC00000FBC400005AC0000058C0000056C0000054C0000052C00000E5
:2070400050C00000F3C000004CC000004AC0000048C0000046C0000044C0000042C0000043
:2070600040C000003EC000003CC000003AC0000038C0000036C0000034C0000032C0000048
:2070800030C000002EC000002CC000002AC0000028C0000026C0000024C0000022C00000A8
:2070A00020C000001EC000001CC0000011241FBECFEFDAE0DEBFCDBF11E0A0E0B1E0E0E0C1
:2070C000FFE702C005900D92A43AB107D9F721E0A4EAB1E001C01D92AA3BB207E1F76DD328
:2070E00003C78ECF84E08093E9008091E80085FF03C08091F1000CC08091E8008B778093ED
:20710000E8008091E80082FDF0CF8EB38111F9CF089593E09093E9009091E80095FF0AC032
:207120008093F1005D9884E690E09093A9018093A80108959091E8009E779093E80090910C
:20714000E80090FDEDCF9EB39111F9CF0895F89410926F0010928100109285001092840099
:2071600081E085BF15BE47985D9A289A0C94000008952091AE013091AF012F5F3F4F309312
:20718000AF012093AE01832F37FF02C08EEF831B880F821710F447980895479A089543EFB8
:2071A00051E030E020E003C0FFEF2F5F3F4F28173907D4F341505109A1F70895479A88EE04
:2071C00093E0EDDF479880ED97E0E9CF84B7877F84BF0FB6F894A895809160008861809376
:2071E0006000109260000FBE90E880E00FB6F89490936100809361000FBE81E085BF82E06B
:2072000085BF3F9A209A559AE1E6F0E09083108247985D9A289A109289009AEF9093880075
:2072200080936F0083E08093810008951F921FB61F9211242F938F939F93EF93FF93109200
:207240008500109284008091A8019091A901009741F001979093A9018093A801892B09F464
:207260005D9A8091A6019091A701009741F001979093A7018093A601892B09F4289AF0E06E
:20728000E0E085919491019649F08091A4019091A50101969093A5018093A401FF91EF917E
:2072A0009F918F912F911F901FBE1F90189542E061EC82E032D342E161E883E02ED342E10D
:2072C00060E884E02AC38091B201982F9F779132B9F49091B3019032A1F0913289F4813AE1
:2072E00079F48091E800877F8093E80067E070E083E091E049D48091E8008B778093E800A9
:2073000008958132E9F78091E800877F8093E80067E070E083E091E08FD48091E8008E7777
:20732000EDCF6F927F928F929F92AF92BF92CF92DF92EF92FF920F931F93CF93DF9384E02B
:207340008093E9008091E80082FF28C2289884E690E09093A7018093A601C4DEC82F85345C
:2073600051F58CE89CE39093A5018093A40107B600FCFDCFF999FECF81E180935700E89526
:207380008DE0C7DE83E08093E9009091E8008091E8008E778093E80095FFF3C18091E80039
:2073A00080FFF9C184E08093E9008091E8008B778093E800F3C1843511F494DEE1CF8C34EA
:2073C000F9F28035E9F2843721F484E4A2DE80E0D8CF89E5C136A9F2C134D1F483DEC82F61
:2073E00081DE2C2F30E0322F2227330F90E0880F991F822B932B092E000CAA0BBB0B8093DC
:20740000AA019093AB01A093AC01B093AD01B8CF83E5C03709F4B5CFC33549F4CCE9D1E01F
:20742000899177DE21E0C33AD207D1F7ABCFC63521F481E36EDE80E3A4CFC33731F487E8A0
:2074400068DE85E966DE8EE19CCFC536B9F4F0E0E0E083E095E080935700E89507B600FCAA
:20746000FDCF90935700E89507B600FCFDCFE058FF4FE11520E7F20771F782CF89E0E1E065
:20748000F0E0C23779F089E0F0E0E0E0C63451F089E0E3E0F0E0CE3429F0C13539F489E0E3
:2074A000E2E0F0E08093570084916BCFC23631F489E52FDE80E02DDE80E863CFC23419F0E5
:2074C000C73609F0CEC01092A5011092A4010ADE182F08DE082F06DED82F8BEB8D0F82309E
:2074E00010F08FE34ECF10926F00C73609F045C081E180935700E895C0E0BB24B394015091
:20750000110920F482E080936F003CCFC090AA01D090AB01E090AC01F090AD01D634B9F445
:20752000EC2FF0E0EC29FD298491F3DDCC2369F082E0C80ED11CE11CF11CC092AA01D0926A
:20754000AB01E092AC01F092AD01CB25D8CFD701C601B695A79597958795B0D4DADD92E07E
:20756000C90ED11CE11CF11CC092AA01D092AB01E092AC01F092AD01C2CF8090AA01909077
:20758000AB01A090AC01B090AD01712CD63459F483E0F40180935700E89587B7F82FF1707B
:2075A0007F2E80FDFACFC0E06624639424C0D63409F034C0CC2379F1C090AA01D090AB017C
:2075C000E090AC01F090AD018DDD982F872DF6010C0160925700E8951124F2E0CF0ED11CE0
:2075E000E11CF11CC092AA01D092AB01E092AC01F092AD01C62501501109C8F6D63441F4D4
:2076000085E0F40180935700E89507B600FCFDCF8DE07FDD77CF66DD782EECCF63DD682F1A
:207620008091AA019091AB01A091AC01B091AD01B695A7959795879549D48091AA0190912B
:20764000AB01A091AC01B091AD010296A11DB11D8093AA019093AB01A093AC01B093AD012F
:20766000CACFC33471F4C091AA01D091AB013ADD90E021E0FE010C0120935700E8951124BC
:207680007FCEC33601F5C090AA01D090AB01E090AC01F090AD0126DDF601E16090E021E0B0
:2076A0000C0120935700E8951124F2E0CF0ED11CE11CF11CC092AA01D092AB01E092AC0131
:2076C000F092AD015DCECD3661F4E091AA01F091AB0185E080935700E89507B600FCFDCFDD
:2076E0004FCEC23551F4E091AA01F091AB01C591D4918D2F0EDD8C2F44CEC434D9F4F2DC26
:20770000682F8091AA019091AB01A091AC01B091AD01B695A79597958795D8D38091AA0146
:207720009091AB01A091AC01B091AD010296A11DB11D65CEC436F1F4C090AA01D090AB0172
:20774000E090AC01F090AD01D701C601B695A79597958795B3D3DDDC22E0C20ED11CE11C75
:20776000F11CC092AA01D092AB01E092AC01F092AD0108CECB3109F405CEB3CE8EB3882393
:2077800069F08091E80080FFF9CF8091E8008E778093E80003CE8EB3811100CEDF91CF9115
:2077A0001F910F91FF90EF90DF90CF90BF90AF909F908F907F906F9008952091000830919C
:2077C0000108109201081092000884B714BE0FB6F894A89590916000986190936000109211
:2077E00060000FBE81FD0AC080FF22C0F0E0E0E0459154914F3F5F4FD9F0A9DCE7DC8FEF9D
:2078000093E05CD38B3B21F5A2DCF2D078941092A5011092A4018091020181113FC0809159
:20782000E00081608093E00092DC90E080E0089583FFE4CF8091000190910101821793071C
:20784000E9F2F0E0E0E0859194910196B9F2D5CF8A3B29F46BEB8FEF93E038D3D6CF893BFF
:20786000A1F6ACDC6BEB8FEF93E030D389E0E1E0F0E08093570094919F3F29F080935700B5
:2078800084918F3349F49ADC89E093E0E1E0F0E0092E80935700E89591DCB7CF42DDF7D2F8
:2078A0008091A4019091A50181389E4310F0109202015FDCB0CF292F30E022303105C9F0A9
:2078C0002330310541F021303105C1F090E080E030E020E00AC08823B1F08130C9F08230A4
:2078E000A9F788E190E02AE031E0FA013183208308958EE390E02CE431E0F7CF82E190E06A
:207900002AE831E0F2CF84E090E028E431E0EDCF82E290E024E231E0E8CF8093E900EBEE5F
:20792000F0E0808181608083EDEEF0E010826093EC0040838091EE00881F8827881F08951A
:207940008091B20187FF11C08091E80082FF06C08091E8008B778093E80003C08EB3811140
:20796000F3CF08958EB38823E1F38091E80080FFF9CF8091E8008E77EECF0F931F93CF9337
:20798000DF9341D048D0C8EDD0E088818F77888388818068888388818F7D888319BC1EBA04
:2079A0001092B00100EE10E0F80180818B7F808388818160888342E060E080E0AEDFE1EE7C
:2079C000F0E080818E7F8083E2EEF0E0808181608083808188608083F80180818E7F80834B
:2079E000888180618883DF91CF911F910F910895E7EDF0E08081816080838AE482BF81E03C
:207A00008093B101BACFE8EDF0E080818E7F80831092E20008951092DA001092E1000895A5
:207A20001F920F920FB60F9211242F933F934F935F936F937F938F939F93AF93BF93EF9373
:207A4000FF938091DA0080FF17C08091D80080FF13C08091DA008E7F8093DA008091D90049
:207A600080FF88C080E189BD82E189BD09B400FEFDCF81E08EBB0AD28091E10080FF17C09A
:207A80008091E20080FF13C08091E2008E7F8093E2008091E20080618093E2008091D800FA
:207AA00080628093D80019BC85E08EBBEFD18091E10084FF29C08091E20084FF25C080E19C
:207AC00089BD82E189BD89B5982F917080FFFBCF8091D8008F7D8093D8008091E1008F7E89
:207AE0008093E1008091E2008F7E8093E2008091E20081608093E2008091B001882309F46A
:207B00003DC084E08EBBC2D18091E10083FF21C08091E20083FF1DC08091E100877F809376
:207B2000E10082E08EBB1092B0018091E1008E7F8093E1008091E2008E7F8093E20080916D
:207B4000E20080618093E20042E060E080E0E5DE9DD1FF91EF91BF91AF919F918F917F917A
:207B60006F915F914F913F912F910F900FBE0F901F90189519BC1EBA89D17ECF8091E300F6
:207B800087FD94E09EBBBFCFFC018091B8019091B90186179707A0F06115710529F490916F
:207BA000E8009E779093E80090E06115710551F4911108C08091E80082FF33C080E0089548
:207BC000BC01F2CF8EB38823A9F1853079F18091E80083FD2DC08091E80082FDEBCF8091D9
:207BE000E80080FFE2CF8091F3002091F200382F6115710519F02830310558F091E02830CB
:207C0000310509F090E02091E8002E772093E800CCCF81918093F100615071092F5F3F4FF4
:207C2000E7CF8EB3882331F0853021F683E0089581E0089582E00895FC016115710529F4B2
:207C40009091E8009B779093E8006115710531F48091E80080FF1DC080E008958EB38823AF
:207C600009F18530D9F08091E80083FD19C08091E80082FFEACF8091F3002091F200382FF9
:207C8000232BF1F28091F10081936150710999F7D7CF8EB3882331F08530D1F683E00895B3
:207CA00081E0089582E008950F931F93CF93DF9300D0CDB7DEB782EB91E02091F100FC0139
:207CC0002193CF01F1E08A3B9F07B9F7FCDA8091E80083FF29C08091B2019091B3019A3097
:207CE00018F5E92FF0E0EA58F04CE2C08238E1F48091B60187708093E9008091EB0085FBA9
:207D0000882780F91092E9009091E800977F9093E8008093F1001092F1008091E8008E77F1
:207D2000B1C0823009F492C08091E80083FF0AC08091EB0080628093EB008091E800877FB1
:207D40008093E8000F900F90DF91CF911F910F9108959091EB0090619093EB0021E030E011
:207D600001C0220F8A95EAF72093EA001092EA008091EB0088607FC08111D6CF1091B40138
:207D80001F770FB7F8948091E800877F8093E800D7DD8091E80080FFFCCF8091E30080781E
:207DA000812B8093E30080688093E30082E0111183E08EBB0FBFB8CF8058823008F0B4CFB9
:207DC000AE014F5F5F4F6091B6018091B4019091B50171DDBC01892B09F4A6CF9091E80019
:207DE000977F9093E80089819A81CEDE8091E8008B778093E80098CF803809F095CF80910E
:207E0000E800877F8093E8008091B0018093F10084CF811189CF9091B401923008F084CF93
:207E20008091E800877F8093E8009093B00188DD8091B001882311F084E005C08091E30084
:207E400087FDFACF81E08EBB32DA6ECF8091B401811113C08091B601877009F465CF8093B4
:207E6000E9002091EB0020FF08C0933009F071CF8091EB0080628093EB001092E900809122
:207E8000E800877F8093E8005BDD4ECF0895CF938EB3882359F0C091E900C7701092E90074
:207EA0008091E80083FD00DFC093E900CF910895EE0FFF1F0590F491E02D0994F999FECFF3
:207EC00092BD81BDF89A992780B50895262FF999FECF1FBA92BD81BD20BD0FB6F894FA9A15
:207EE000F99A0FBE01960895F894FFCF763E913E943E913E943EBC3EDC3E943EFC3E093F36
:207F000077770100000000000008180341006E0079006B0065007900200062007600620084
:207F200061000000220341006E0079004B006500790020002000200020002000200020008A
:207F400020002000200000000403090409023E000201008032090400000102020100052473
:207F6000001001042402040524060001070582030800FF09040100020A00000007050402CE
:207F800010000107058302100001120110010200000841233600010002010001414E594B2E
:047FA000455920001F
:00000001FF
